:100000000C9479010C94EB0C0C9496010C949601D1
:100010000C9496010C9496010C9496010C946E0C21
:100020000C9496010C9496010C9496010C94C20BBE
:100030000C9496010C9496010C94600B0C94960110
:100040000C9496010C9496010C94A80C0C949601B7
:100050000C9496010C9496010C9496010C949601C4
:100060000C9496010C94960144034B0352035903DC
:10007000600367036E037503850B8C0B7E0B9A0B75
:10008000930BA80BA10B08000000BE922449123E5E
:10009000ABAAAA2ABECDCCCC4C3E00000080BEABA1
:1000A000AAAAAA3E00000000BF000000803F000096
:1000B000000000084178D3BB4387D1133D190E3CA3
:1000C000C3BD4282AD2B3E68EC8276BED98FE1A9DA
:1000D0003E4C80EFFFBE01C4FF7F3F0000000000E8
:1000E000000000000000005F00000007000700148F
:1000F0007F147F14242A7F2A12231308646236494E
:100100005522500005030000001C2241000041223E
:100110001C0014083E081408083E0808005030006F
:1001200000080808080800606000002010080402A9
:100130003E5149453E00427F4000426151494621BF
:1001400041454B311814127F1027454545393C4A2B
:10015000494930017109050336494949360649497B
:10016000291E0036360000005636000008142241D1
:100170000014141414140041221408020151090639
:10018000324979413E7E1111117E7F494949363EFF
:10019000414141227F4141221C7F494949417F0918
:1001A0000909013E4149497A7F0808087F00417FDB
:1001B00041002040413F017F081422417F404040E0
:1001C000407F020C027F7F0408107F3E4141413E88
:1001D0007F090909063E4151215E7F0919294646DA
:1001E0004949493101017F01013F4040403F1F2003
:1001F00040201F3F4038403F6314081463070870D5
:1002000008076151494543007F414100020408103D
:10021000200041417F000402010204404040404070
:10022000000102040020545454787F484444383874
:1002300044444420384444487F3854545418087E79
:100240000901020C5252523E7F0804047800447D9A
:1002500040002040443D007F1028440000417F4082
:10026000007C041804787C0804047838444444383A
:100270007C14141408081414147C7C080404084822
:1002800054545420043F4440203C4040207C1C20D7
:1002900040201C3C4030403C44281028440C505026
:1002A000503C4464544C44000836410000007F0038
:1002B0000000413608001008081008000000000087
:1002C0001200AE01A83F0120000221007F0222009F
:1002D00007004001D30000A100C801DA1201817FAC
:1002E00000A400A601D58001D9C201DB20018D1434
:1002F00000AF11241FBECFEFD8E0DEBFCDBF13E0AB
:10030000A0E0B1E0E4E2F4E302C005900D92AC3C61
:10031000B107D9F724E0ACECB3E001C01D92A738D7
:10032000B207E1F70E94C4090C94101A0C94000063
:10033000FC0181818F5F81838C3324F01182828163
:100340008F5F828382818C3324F0128283818F5F5E
:100350008383838188310CF0138208950F931F9358
:10036000CF93DF93FC01208123FD29C08B01EC0199
:100370006EE071E0C8010E94071A892B31F4888170
:1003800081608860888386E11DC064E171E0C801F6
:100390000E94071A892B31F48881826088608883E3
:1003A00087E110C06CE171E0C8010E94071A892B37
:1003B00041F4888184608860888388E103C080E09C
:1003C00001C080E0DF91CF911F910F910895FC0152
:1003D00080818150808388232CF484E6808381810E
:1003E00081508183818188232CF48BE381838281F6
:1003F00081508283828188232CF48BE382838381E2
:10040000815083838381882324F410821182128295
:1004100013820895FC0180818F5F8083843624F0ED
:10042000108281818F5F818381818C3324F01182DE
:1004300082818F5F828382818C3324F01282838158
:100440008F5F8383838188310CF013820895CF936B
:10045000DF93EB01813021F130F0823009F442C0AA
:10046000833049F155C00E943C1445E251E062E0FE
:100470008AE00E949B1347E351E063E08AE00E9418
:100480009B1344E451E064E08AE00E949B1344E53E
:1004900051E067E08AE00E949B130E94FC1338C081
:1004A0000E943C1446E651E067E08AE00E949B13FC
:1004B0000E94FC132DC00E943C144BE651E063E007
:1004C0008AE00E949B134CE751E064E08AE00E94BE
:1004D0009B1346E651E067E08AE00E949B130E946E
:1004E000FC1316C00E943C14888182958170805D47
:1004F00080939C014FE851E062E08AE00E949B13E8
:1005000046E651E067E08AE00E949B130E94FC13DC
:10051000DF91CF910895CF93DF93EC01988193FF02
:1005200098C0DA01FB0190FF24C0892F8E7F888359
:100530008081882319F0823081F088C08C918330CB
:1005400039F0843041F0823041F484E08C9305C06E
:1005500082E08C9302C083E08C938C91823019F0FE
:10056000873021F073C087E08C9370C082E08C9359
:100570006DC091FF24C088818D7F8883808188230E
:1005800019F0823081F062C08C91833039F0843070
:1005900041F0823041F483E08C9305C084E08C9379
:1005A00002C082E08C938C91823019F0873021F068
:1005B0004DC087E08C934AC082E08C9347C092FF85
:1005C00045C088818B7F888380818130E1F028F06D
:1005D0008230E9F0833099F135C08C91833049F055
:1005E000843061F0823071F587E08C9381E0808304
:1005F00029C087E08C9383E0808324C087E08C93BC
:1006000082E080831FC082E08C9310821BC08C919B
:10061000823019F0873079F015C082E08C938881A0
:1006200084FF03C08F7E888303C0888180618883B4
:1006300082E0808307C082E08C93108203C082E056
:100640008C931082BE0180810E9427028881877F5F
:100650008883DF91CF910895CF93DF93D82FC0E0A7
:1006600007C04EE951E06C2F80E00E949B13CF5FE2
:10067000C830B8F38D2F90E088309105E0F5FC018B
:10068000EC5CFF4F0C945A184EE052E060E080E0C2
:100690000E949B1330C04EE052E061E080E00E9477
:1006A0009B1329C04EE052E062E080E00E949B1361
:1006B00022C04EE052E063E080E00E949B131BC02A
:1006C0004EE052E064E080E00E949B1314C04EE0D4
:1006D00052E065E080E00E949B130DC04EE052E0C6
:1006E00066E080E00E949B1306C04EE052E067E0A7
:1006F00080E00E949B130E94FC13DF91CF9108952C
:10070000E0EAF1E027E69202312D11243595359586
:1007100097FD339540E3430F4187330F432F440F39
:10072000440F340F931B905D92878202912D112408
:100730009595959587FD939530E3390F3487990FFB
:10074000392F330F330F930F891B805D858772021A
:10075000212D11242595259577FD239580E3820F82
:100760008787220F822F880F880F280F721B705DDA
:10077000708BAF0160E08AE00E949B130E94FC1323
:1007800008954F925F926F927F928F929F92AF9255
:10079000BF92CF92DF92EF92FF920F931F93CF936E
:1007A000DF93CDB7DEB72C970FB6F894DEBF0FBE40
:1007B000CDBFE982FA820B831C832D833E834F8356
:1007C000588749805A806B807C80C301B20128EE33
:1007D00033E040E050E00E943B1802EB11E0205D66
:1007E000F80125830F2EF4E68F2E912CA12CB12C2D
:1007F000F02DA50194010E943B18205DF80126838D
:10080000C301B201A50194010E943B180F2EFAE02A
:10081000CF2ED12CE12CF12CF02DA70196010E94B6
:100820003B18205DF8012087C301B201A7019601A2
:100830000E943B18605DF8016187A80162E08AE0D0
:100840000E949B134D805E806F807884C301B2014B
:1008500020E137E240E050E00E9419180FEB11E070
:10086000205DF801258328EE33E040E050E00E944F
:100870001918205DF8012683C301B20128EE33E088
:1008800040E050E00E941918A50194010E94191837
:10089000205DF8012783C301B201A50194010E94E4
:1008A0001918A70196010E941918205DF8012087E8
:1008B000C301B201A70196010E941918605DF801F9
:1008C0006287A80163E08AE00E949B132C960FB612
:1008D000F894DEBF0FBECDBFDF91CF911F910F9176
:1008E000FF90EF90DF90CF90BF90AF909F908F9050
:1008F0007F906F905F904F9008954F925F926F92AC
:100900007F928F929F92AF92BF92CF92DF92EF929F
:10091000FF920F931F93CF93DF93CDB7DEB72C9742
:100920000FB6F894DEBF0FBECDBFE982FA820B830B
:100930001C832D833E834F8358870FEC11E087E69D
:100940002D2D2802912D112495959595D7FC9395E1
:1009500020E3290FF8012183990F292F220F220F5D
:10096000920FD91A9D2D905D9283FC2DF802912D46
:10097000112495959595C7FC939520E3290FF801CF
:100980002483990F292F220F220F920FC91A9C2D11
:10099000905D9583FB2DF802812D11248595859519
:1009A000B7FC839590E3980FF8019783880F982FF1
:1009B000990F990F890FB81A8B2D805D80878980D8
:1009C0009A80AB80BC80C501B40128EE33E040E0E2
:1009D00050E00E943B18205DF80125870F2EF4E6B9
:1009E0004F2E512C612C712CF02DA30192010E94ED
:1009F0003B18205DF8012687C501B401A3019201CF
:100A00000E943B180F2EFAE0CF2ED12CE12CF12CB6
:100A1000F02DA70196010E943B18205DF801208B64
:100A2000C501B401A70196010E943B18605DF80161
:100A3000618B8D809E80AF80B884C501B40120E1B8
:100A400037E240E050E00E941918205DF801268B43
:100A500028EE33E040E050E00E941918205DF801D4
:100A6000278BC501B40128EE33E040E050E00E943E
:100A70001918A30192010E941918205DF801208F16
:100A8000C501B401A30192010E941918A7019601A2
:100A90000E941918205DF801218FC501B401A7013A
:100AA00096010E941918605DF801638FC8010E94C9
:100AB00049072C960FB6F894DEBF0FBECDBFDF916D
:100AC000CF911F910F91FF90EF90DF90CF90BF904B
:100AD000AF909F908F907F906F905F904F90089510
:100AE000CF93DF93DC01FB012C9197E62902812D46
:100AF00011248595859527FD8395880F382F330F11
:100B0000330F830F281BEA01C20FD11D27FDDA9591
:100B1000888180832C912902812D112485958595CA
:100B200027FD8395EA01C80FD11D87FDDA958881DD
:100B3000818311962C9111972902812D112485957D
:100B4000859527FD8395880F382F330F330F830F3B
:100B5000281BEA01C20FD11D27FDDA958881828307
:100B600011962C9111972902812D11248595859537
:100B700027FD8395EA01C80FD11D87FDDA9588818D
:100B8000838312962C9112972902812D1124859529
:100B9000859527FD8395880F382F330F330F830FEB
:100BA000281BEA01C20FD11D27FDDA9588818483B5
:100BB00012962C9112972902812D112485958595E5
:100BC00027FD8395EA01C80FD11D87FDDA9588813D
:100BD000858313962C9113972902812D11248595D5
:100BE000859527FD8395880F382F330F330F830F9B
:100BF000281BEA01C20FD11D27FDDA958881868363
:100C000013968C918902912D11249595959587FDC8
:100C10009395DA01A90FB11D97FDBA958C91878341
:100C2000DF91CF9108959091CC0391110BC098B1B1
:100C300021E030E002C0220F331F6A95E2F7292B32
:100C400028B90BC098B121E030E002C0220F331F59
:100C50006A95E2F72095292328B99091CC03FA01EF
:100C6000E90FF11D208160E1269F900111242F6082
:100C70002BB948B121E030E0B90102C0660F771FFF
:100C80008A95E2F7CB01942F982B98B900000000C9
:100C9000000098B18095892388B98091CC038F5F3B
:100CA0008093CC03883011F41092CC03089582E431
:100CB00080937C0010927B0087E880937A000895EF
:100CC000ECE7F0E09081907F892B8083EAE7F0E009
:100CD00080818064808380917A0086FDFCCF809142
:100CE00078009091790008958FE08093690083E007
:100CF0008DBB089580E284B915B883E087B918B830
:100D000080EF8AB98CE08BB90895E9EBF0E080813F
:100D1000816080838CE08093B800ECEBF0E0808110
:100D200084608083089584EA8093BC008091BC0035
:100D30008823E4F78091B900089584EA8093BC0089
:100D40008091BC008823E4F78091B900089584E97C
:100D50008093BC0008958093BB0084E88093BC001E
:100D60008091BC008823E4F78091B900887F8831A6
:100D700011F48091B900089520E4829FC0011124EC
:100D800084688093BC008091BC008823E4F7809144
:100D9000BB000895813059F018F0823089F0089531
:100DA00085B5887F85BD85B5682B65BD0895E1E86B
:100DB000F0E08081887F80838081682B6083089544
:100DC000E1EBF0E08081887F80838081682B608305
:100DD000089516BC8AE087BD84B5826084BDEEE6C6
:100DE000F0E080818260808365E080E00E94CA0636
:100DF0000895109285001092840089E09DE39093FD
:100E0000890080938800E1E8F0E080818860808339
:100E1000EFE6F0E080818260808365E081E00E94FF
:100E2000CA0608951092B2008CE98093B300E0EBFB
:100E3000F0E0808182608083E0E7F0E08081826082
:100E4000808367E082E00E94CA060895813041F005
:100E500018F0823059F0089585B5887F85BD0895D2
:100E6000E1E8F0E08081887F80830895E1EBF0E0A5
:100E70008081887F8083089587E690E09093C50005
:100E80008093C40088E98093C10086E08093C2000B
:100E90000895AC0120E007C09091C00095FFFCCF01
:100EA0003093C6002F5FFA01E20FF11D308131113E
:100EB000F3CF0895EF92FF920F931F93CF93DF9399
:100EC000EC018B017A010E949801A701B801CE01C3
:100ED0000E947005DF91CF911F910F91FF90EF90CD
:100EE0000895EF92FF920F931F93CF93DF93EC013E
:100EF0008B017A010E940A02A701B801CE010E946B
:100F00007005DF91CF911F910F91FF90EF900895A1
:100F1000EF92FF920F931F93CF93DF93EC018B011E
:100F20007A010E94E701A701B801CE010E94700575
:100F3000DF91CF911F910F91FF90EF900895E1E124
:100F4000F4E083836283418320830895E3E8F4E03F
:100F500083836283418320830895EBE7F4E08383F6
:100F60006283418320830895EFE7F4E08383628303
:100F70004183208308950F931F93CF938C01FC012D
:100F8000C181C23309F42CC128F4C03361F0C133EC
:100F9000B9F0F6C1C43309F490C108F4B8C0C53340
:100FA00009F4E8C1EDC16BE072E00E94071A892BD9
:100FB00009F0E6C180E192E00E94490781E0E0C1CA
:100FC00067E272E00E94071A892B61F420E040E09A
:100FD00060E080E00E949F078CE292E00E94490757
:100FE00082E0CEC16CE372E0C8010E94071A892B2F
:100FF00049F481E00E94260781E492E00E944907BB
:1010000083E0BEC161E572E0C8010E94071A892B26
:1010100051F486E592E00E94490765E081E00E9474
:10102000CA0684E0ADC1C13399F5F80182818333EA
:1010300079F586E692E00E944907F801838190E005
:10104000C097880F982F990F990F890F9481890F56
:10105000258130E020533109220F622F660F660F81
:10106000260F9681622F690F6053278130E020534D
:101070003109220F422F440F440F240F9085422F35
:10108000490F405320E080530E949F0785E078C1BC
:10109000C13309F075C1F8018281843309F070C150
:1010A00085E792E00E944907F801838190E0C097AC
:1010B000880F982F990F990F890F9481890F258197
:1010C00030E020533109220F622F660F660F260F82
:1010D0009681622F690F6053278130E020533109D8
:1010E000220F422F440F440F240F9085422F490FA7
:1010F000405320E080530E94A60742E051E069EE91
:1011000073E083E894E00E94700586E039C164E8EA
:1011100072E00E94071A892B61F489E892E00E942C
:10112000490720E040E060E080E00E949F0787E000
:1011300027C16DE972E0C8010E94071A892B49F4A2
:1011400082EA92E00E94490782E00E94260788E036
:1011500017C166EB72E0C8010E94071A892B51F48F
:101160008BEB92E00E94490767E082E00E94CA068A
:1011700089E006C1C33309F003C1F80182818333DA
:1011800009F0FEC08FEC92E00E944907F8018381CC
:1011900090E0C097880F682F660F660F860F9481C6
:1011A000682F690F6053858190E0C097880F482FA2
:1011B000440F440F840F9681482F490F4053878175
:1011C00090E0C097880F282F220F220F820F908562
:1011D000282F290F205380E00E94B4078AE0D0C056
:1011E00062EE72E00E94071A892B61F487EE92E0AA
:1011F0000E94490720E040E060E080E00E94AD07E7
:101200008BE0BEC06DEF72E0C8010E94071A892B07
:1012100049F482E093E00E94490782E00E94260799
:101220008CE0AEC068E173E0C8010E94071A892B08
:1012300051F48DE193E00E94490767E082E00E944B
:10124000CA068DE09DC063E373E0C8010E94071ADF
:10125000892B09F095C088E393E00E9449078091AB
:10126000D7038530C0F4E82FF0E0ABE7B4E09C9101
:10127000EE0FFF1FEE0FFF1FEA5CFB4F90831196EE
:101280009C911197918312969C9192838F5F80938A
:10129000D7038EE075C0ABE7B4E08C91E6E3F4E0F1
:1012A000808311968C911197818312968C91828301
:1012B00081E08093D7038EE063C066E473E00E9410
:1012C000071A892B41F48BE493E00E9449078FE0D1
:1012D0008093010155C06AE573E0C8010E94071AB6
:1012E000892B41F48FE593E00E94490780E18093C8
:1012F000010146C062E773E0C8010E94071A892B0A
:1013000051F41092D70387E793E00E94490781E1E7
:101310008093010135C06CE873E0C8010E94071A90
:10132000892B41F481E993E00E94490782E180938F
:10133000010126C060EA73E0C8010E94071A892BE8
:1013400041F485EA93E00E94490783E1809301011B
:1013500017C06AEB73E0C8010E94071A892B81F459
:101360001092D7038FEB93E00E94490785E18093A9
:10137000010106C0BC0189E594E00E94AE0100C0F5
:10138000CF911F910F9108950E947A060E943C0709
:1013900078942FEF39E648E1215030404040E1F7A2
:1013A00000C000008FE0809301010E9474060E943B
:1013B00057060E94E9060E94F9060E9412070E9441
:1013C00085068EE18093840442E051E069EE73E08B
:1013D00083E894E00E9470050E94970E0E94BA1361
:1013E0000E943C1469E574E08091CE030E942702BC
:1013F000809100010E942C038091D8038130F1F488
:101400008AE494E00E94BB0780937A0440E051E0B4
:101410006EEC73E089E594E00E948B026091110408
:101420007091120480911304909114040E9480031F
:10143000809100010E942C031092D8038091010139
:10144000833109F0CDC082E00E9460069C01909338
:10145000D6038093D503AC01440F551F880F991F05
:10146000880F991F880F991F840F951F60E074E003
:10147000621B730B0E94F1177093D4036093D30324
:1014800080E090E00E94611620E030E040E251E40C
:101490000E94B9150E94F7162CE23BEB44E859E391
:1014A0000E943F1722E63BEE4BE55BE30E944D15A1
:1014B0009B01AC0160E070E080E89FE30E94B915F9
:1014C0006B017C016093CF037093D0038093D103B1
:1014D0009093D2030E942B16C62F862F972F64E677
:1014E00070E00E940518D62F05E514E0F80163832B
:1014F000F4E66F9FC0191124F801C283F4E66F026D
:10150000B0011124072E000C880B990B0E94631662
:101510009B01AC01C701B6010E944C154B015C0157
:101520006C2FCC0F770B880B990B0E9463162B0145
:101530003C019B01AC01C501B4010E944C152AE09D
:1015400037ED43E25CE30E94B9150E942B16C62FCB
:10155000F80161836D2FDD0F770B880B990B0E94CB
:10156000631620E030E048EC52E40E943F179B01F4
:10157000AC01C701B6010E944C15A30192010E9463
:101580004C156B017C016C2FCC0F770B880B990BE2
:101590000E9463162AE037ED43E25CE30E943F17A6
:1015A0009B01AC01C701B6010E944C1527E137EB46
:1015B00041ED58E30E94B9150E942B16F801608393
:1015C00042E051E061EE73E0C8010E947005FFEF58
:1015D00023EC39E0F15020403040E1F700C000003A
:1015E00080910101853189F5809301014FEF89E6F2
:1015F00098E1415080409040E1F700C000008091A8
:10160000D70390E00196069714F01092D7038091CB
:10161000D70390E09C012F5F3F4F880F991F880FE1
:10162000991F8A5C9B4F220F322F330F330F230FEA
:10163000FC01238342E051E069ED73E00E947005F4
:101640008091D7038F5F8093D703809101018F3002
:1016500009F0D2CE90911404809186049813CCCED8
:1016600090911304809185049813C6CE9091120432
:10167000809184049813C0CE1AC022E12093010106
:10168000FFEF29E638E1F15020403040E1F700C09B
:10169000000024E1209301014FEFE9E6F8E1415019
:1016A000E040F040E1F700C00000019602C080E099
:1016B00090E0833091050CF38FE0809301019CCE84
:1016C0001F920F920FB60F9211242F933F934F93B7
:1016D0005F936F937F938F939F93AF93BF93EF939A
:1016E000FF93E09101018E2F90E0FC013F97E730DE
:1016F000F10598F5E45CFF4F0C945A1841EF53E064
:1017000061E080E00E9413062CC041E054E061E0FB
:1017100080E00E94130625C049EF53E061E080E0BD
:101720000E9413061EC041EE53E061E080E00E947B
:10173000130617C049EE53E061E080E00E941306F3
:1017400010C049ED53E061E080E00E94130609C03B
:1017500098B181E0892788B904C098B181E08927D0
:1017600088B9FF91EF91BF91AF919F918F917F9138
:101770006F915F914F913F912F910F900FBE0F90FE
:101780001F9018951F920F920FB60F921124AF92CF
:10179000BF92CF92DF92EF92FF920F931F932F93FE
:1017A0003F934F935F936F937F938F939F93AF93E9
:1017B000BF93CF93DF93EF93FF9342E051E061E05B
:1017C00074E081E194E00E945A07609111047091E5
:1017D000120480911304909114040E94800380915C
:1017E000CE03813021F08091590484FF5CC00E94B7
:1017F000FF0ECAE5D4E0688379838A839B830E94C5
:10180000F10F6C837D838E839F830E949C12092E2F
:10181000000CAA0BBB0B88879987AA87BB8780918E
:10182000590484FF22C0A0901104B0901204C0900B
:101830001304D0901404E0905A04F0905B040091DB
:101840005C0410915D0420915E0430915F0440912E
:10185000600450916104609162047091630480910E
:101860006404909165040E947D048091CE038130D0
:10187000D1F4E0905A04F0905B0400915C04109164
:101880005D0420915E0430915F04409160045091AA
:10189000610460916204709163048091640490918A
:1018A00065040E94C103FF91EF91DF91CF91BF9139
:1018B000AF919F918F917F916F915F914F913F91E8
:1018C0002F911F910F91FF90EF90DF90CF90BF90DD
:1018D000AF900F900FBE0F901F9018951F920F9210
:1018E0000FB60F9211242F933F934F935F936F93F3
:1018F0007F938F939F93AF93BF93EF93FF938091C9
:101900000101803119F0813151F011C042E051E004
:1019100069EF73E08FE794E00E94880708C042E017
:1019200051E061EF73E08BE794E00E947107FF9153
:10193000EF91BF91AF919F918F917F916F915F9147
:101940004F913F912F910F900FBE0F901F901895C0
:101950001F920F920FB60F9211242F933F938F93E4
:101960009F93EF93FF938091CD0390E02091C60069
:10197000FC01E65BFB4F208330914A043C3341F489
:101980000EC0E82FF0E0E65BFB4F10828F5F01C0D6
:1019900080E08B30B0F38FEF8093CD030CC02E33FB
:1019A00051F4FC01E55BFB4F10828FEF8093CD0378
:1019B00081E08093D8038091CD038F5F8093CD0326
:1019C000FF91EF919F918F913F912F910F900FBEBB
:1019D0000F901F9018951F920F920FB60F9211241F
:1019E0002F933F934F935F936F937F938F939F9327
:1019F000AF93BF93EF93FF9395B180E2892785B9A9
:101A000080910101813199F588E393E00E944907B3
:101A10008091D7038530B8F4E82FF0E0ABE7B4E06D
:101A20009C91EE0FFF1FEE0FFF1FEA5CFB4F9083B0
:101A300011969C911197918312969C9192838F5F3E
:101A40008093D70314C088E393E00E944907ABE773
:101A5000B4E08C91E6E3F4E0808311968C911197C9
:101A6000818312968C91828381E08093D703FF91CA
:101A7000EF91BF91AF919F918F917F916F915F9106
:101A80004F913F912F910F900FBE0F901F9018957F
:101A9000CF93DF930E9493068CEE0E94AB0688E8FA
:101AA0000E94AB060E949D068DEE0E94AB0681E06F
:101AB0000E94BC06C5E1D4E090E09983888381E070
:101AC0000E94BC0690E0982F882728813981820FD8
:101AD000931F9983888381E00E94BC0690E09B83DA
:101AE0008A8381E00E94BC0690E0982F88272A8193
:101AF0003B81820F931F9B838A8381E00E94BC06F7
:101B000090E09D838C8381E00E94BC0690E0982F3A
:101B100088272C813D81820F931F9D838C8381E0D8
:101B20000E94BC0690E09F838E8381E00E94BC06E9
:101B300090E0982F88272E813F81820F931F9F83EB
:101B40008E8381E00E94BC0690E09987888781E0BF
:101B50000E94BC0690E0982F882728853985820F3F
:101B6000931F9987888781E00E94BC0690E09B873D
:101B70008A8781E00E94BC0690E0982F88272A85FA
:101B80003B85820F931F9B878A8781E00E94BC065A
:101B900090E09D878C8781E00E94BC0690E0982FA2
:101BA00088272C853D85820F931F9D878C8781E038
:101BB0000E94BC0690E09F878E8781E00E94BC0651
:101BC00090E0982F88272E853F85820F931F9F874F
:101BD0008E8781E00E94BC0690E0998B888B81E023
:101BE0000E94BC0690E0982F882728893989820FA7
:101BF000931F998B888B81E00E94BC0690E09B8BA1
:101C00008A8B81E00E94BC0690E0982F88272A8961
:101C10003B89820F931F9B8B8A8B81E00E94BC06BD
:101C200090E09D8B8C8B81E00E94BC0690E0982F09
:101C300088272C893D89820F931F9D8B8C8B81E097
:101C40000E94BC0690E09F8B8E8B80E00E94BC06B9
:101C500090E0982F88272E893F89820F931F9F8BB2
:101C60008E8B0E94A7060E9493068CEE0E94AB0604
:101C700081EA0E94AB060E949D068DEE0E94AB0693
:101C800080E00E94BC06888F0E94A7060E949306EF
:101C90008CEE0E94AB0681EE0E94AB060E949D0670
:101CA0008DEE0E94AB0681E00E94BC0690E09A8F08
:101CB000898F81E00E94BC0690E0982F8827298DAB
:101CC0003A8D820F931F9A8F898F81E00E94BC0604
:101CD0008B8F81E00E94BC0620E1829FC00111240D
:101CE0009D8F8C8F81E00E94BC06982F9F702C8D59
:101CF0003D8D290F311D3D8F2C8F82958F7090E087
:101D00009F8F8E8F81E00E94BC062E8D3F8D90E1CB
:101D1000899F200D311D11243F8F2E8F80E00E945E
:101D2000BC0688A30E94A706DF91CF9108950E9468
:101D300093068CEE0E94AB0684EF0E94AB0687E50B
:101D40000E94AB0685EF0E94AB0680E10E94AB06C5
:101D50000E94A7060E94480D0895CF93DF930E942A
:101D600093068CEE0E94AB068AEF0E94AB060E949F
:101D70009D068DEE0E94AB0681E00E94BC06C6E681
:101D8000D4E0888381E00E94BC06898380E00E94C1
:101D9000BC068A830E94A706888190E0A0E0B0E09C
:101DA000AC01BD01032E3CE0440F551F661F771F99
:101DB0003A95D1F7302D9981892F90E0A0E0B0E0DD
:101DC000880F991FAA1FBB1F880F991FAA1FBB1F2F
:101DD000880F991FAA1FBB1F880F991FAA1FBB1F1F
:101DE000842B952BA62BB72B2A8122952F70822B23
:101DF0008B839C83AD83BE83DF91CF9108954F92F7
:101E00005F926F927F928F929F92AF92BF92CF928A
:101E1000DF92EF92FF920E94AD0EC0906904D090C5
:101E20006A04E0906B04F0906C04B701A60168941A
:101E300012F876956795579547951694D1F7E5E191
:101E4000F4E040805180612C712CD301C201880FD5
:101E5000991FAA1FBB1F9A01AB01281B390B4A0B04
:101E60005B0BA281B3810E946B184B015C01072EB2
:101E70007BE0B694A794979487947A95D1F7702DC8
:101E8000D701C601689413F8B695A79597958795DD
:101E90001694D1F7BC01CD0164197509860997091B
:101EA0009B01AC010E94E1179B01AC01012E1CE0DB
:101EB00056954795379527951A95D1F7102DA481FA
:101EC000B5810E946B18DC01CB01072E7EE0B69530
:101ED000A795979587957A95D1F7702D880D991DBF
:101EE000AA1DBB1D8093090490930A04A0930B04C0
:101EF000B0930C046C017D01CC0CDD1CEE1CFF1CAE
:101F0000CC0CDD1CEE1CFF1C8C0D9D1DAE1DBF1DE1
:101F100080589F4FAF4FBF4F692F7A2F8B2F992734
:101F200087FD9A95FF90EF90DF90CF90BF90AF9094
:101F30009F908F907F906F905F904F900895CF9378
:101F4000DF930E9493068CEE0E94AB0687EF0E94FF
:101F5000AB060E949D068DEE0E94AB0681E00E94BA
:101F6000BC06CDE6D4E0888381E00E94BC0689836C
:101F700080E00E94BC068A830E94A706888190E0C8
:101F8000A0E0B0E0AC01BD01032E3CE0440F551FC2
:101F9000661F771F3A95D1F7302D9981892F90E0F0
:101FA000A0E0B0E0880F991FAA1FBB1F880F991FE0
:101FB000AA1FBB1F880F991FAA1FBB1F880F991F3D
:101FC000AA1FBB1F842B952BA62BB72B2A812295EA
:101FD0002F70822B8B839C83AD83BE83DF91CF9147
:101FE00008952F923F924F925F926F927F928F92BD
:101FF0009F92AF92BF92CF92DF92EF92FF920F9398
:102000001F93CF93DF93CDB7DEB762970FB6F894E7
:10201000DEBF0FBECDBF0E949F0F8091090490913B
:102020000A04A0910B04B0910C046C017D01FF0C1B
:10203000CC08DC2C7601282F392F4A2F5B2F6C2DF2
:102040007C2D8C2D9C2D345F414051096109710913
:102050008109910929833A83442E552E662E772EC5
:10206000282E392EA22EB32EC42ED52EE62EF72ED4
:10207000082F192F0E9473182B833C834D835E8396
:102080006F8378878B879C87B0902604A090250467
:102090001B2D110F110BC12ED12EE12EF12E012F70
:1020A0000E94731829873A874D875E87862E972E60
:1020B0008F87988BB0902404A09023041B2D110FC0
:1020C000110BC12ED12EE12EF12E012F29813A8143
:1020D000442D552D662D772D822D932D0E9473183A
:1020E00001E10E94A319A22EB32EC42ED52EE62EF6
:1020F000F72E082F192F29853A854D855E85682D85
:10210000792D8F8598890E94DA19822E932E49871E
:102110005A87B62FA72FF82FE92F3091220420914C
:102120002104932F990F990B492F592F692F792F3C
:10213000892F03E20E94A319A22EB32EC42ED52EFE
:10214000E62EF72E082F192F282D392D49855A856F
:102150006B2F7A2F8F2F9E2F0E94DA1929873A87AB
:102160004D875E876F87788B898B9A8BB090200420
:10217000A0901F041B2D110F110BC12ED12EE12E8B
:10218000F12E012F2B813C814D815E816F817885FD
:102190008B859C850E94731808E00E94BC192B83D4
:1021A0003C834D835E83862E972E8F839887B090D5
:1021B0001E04A0901D041B2D110F110BC12ED12E3A
:1021C000E12EF12E012F29813A81442D552D662DC6
:1021D000772D822D932D0E9473180CE00E94A31975
:1021E000A22EB32EC42ED52EE62EF72E082F192F91
:1021F0002B813C814D815E81682D792D8F81988561
:102200000E94DA1970588F4F9F4FE0911B04F09194
:102210001C041F01AE2EB32CC12CD12CE12CF12CAF
:1022200000E010E00E94731801E20E94BC19422EE7
:10223000532E642E752E862E972E8A839983A0E0C6
:102240000E94EC1909F411C18091700490917104FD
:10225000A0917204B091730440E050E060E170E03E
:102260008A019B01081B190B2A0B3B0BD901C801E2
:1022700058016901282F3B2D4C2D5D2D60E070E049
:1022800080E090E00FE10E94A319A984BA84CD8474
:10229000DE84EF84F88809891A890E94E3190F2ED9
:1022A000F5E3AF2EF02D0F2EFCE0BF2EF02DC12C4C
:1022B000D12CE12CF12C00E010E00E947318A42C2A
:1022C000B52CC62CD72CE82CF92C0A8119810E9438
:1022D000CE1829833A834B835C836D837E838F83FF
:1022E0009887F0912C04A0912B04EF2FEE0FEE0BAA
:1022F0000DE00E94BC19222E332E442E552E662E40
:10230000772E882E992EA22EB32EC42ED52EE62EF1
:10231000F72E082F192F2A2F3F2F4E2F5E2F6E2FAB
:102320007E2F8E2F9E2F0E947318A22EB32EC42EA6
:10233000D52EE62EF72E082F192F222D332D442DC2
:10234000552D662D772D882D992D0E94731809E142
:102350000E94BC19522E432E342E252E6B877C876B
:1023600089879A87B0902A04A09029041B2D110F09
:10237000110BC12ED12EE12EF12E012F29813A8190
:102380004B815C816D817E818F8198850E9473185D
:1023900003E10E94BC19622E732E842E952EB62F57
:1023A000A72FF82FE92F29813A814B815C816D811C
:1023B0007E818F819885A52CB42CC32CD22CEB84E4
:1023C000FC8409851A850E94DA19A22EB32EC42E28
:1023D000D52EE62EF72E082F192F262D372D482D16
:1023E000592D6B2F7A2F8F2F9E2F0E94DA1908E01C
:1023F0000E94BC19822E932E642E752EB62FA72F05
:10240000F82FE92F3091280420912704932F990F5A
:10241000990B492F592F692F792F892F04E00E949A
:10242000A319A22EB32EC42ED52EE62EF72E082FDA
:10243000192F282D392D462D572D6B2F7A2F8F2FA1
:102440009E2F0E94DA19A12C0F2EFAE0BF2EF02D3C
:10245000C12CD12CE12CF12C00E010E00E94CE1810
:10246000622F732F842F952F04C060E070E080E00E
:1024700090E062960FB6F894DEBF0FBECDBFDF913D
:10248000CF911F910F91FF90EF90DF90CF90BF9071
:10249000AF909F908F907F906F905F904F903F9004
:1024A0002F900895CF93DF930E9493068CEE0E94A5
:1024B000AB068DEF0E94AB060E949D068DEE0E943A
:1024C000AB0681E00E94BC06C4E7D4E0888380E0CC
:1024D0000E94BC0689830E94A706888190E0A0E044
:1024E000B0E0AC01BD01032E3CE0440F551F661F58
:1024F000771F3A95D1F7302D9981892F90E0A0E090
:10250000B0E0880F991FAA1FBB1F880F991FAA1F31
:10251000BB1F880F991FAA1FBB1F880F991FAA1FD7
:10252000BB1F842B952BA62BB72B8A839B83AC8355
:10253000BD83DF91CF9108954F925F926F927F920A
:102540008F929F92AF92BF92CF92DF92EF92FF92C3
:102550000E9452128090090490900A04A0900B04EB
:10256000B0900C042CE2921A21E0A20AB108C090AB
:102570007604D0907704E0907804F09079040B2EE4
:10258000BEE0CC0CDD1CEE1CFF1CBA95D1F7B02DC3
:10259000E5E1F4E0848D958D092E000CAA0BBB0BB0
:1025A000072E74E1880F991FAA1FBB1F7A95D1F7D8
:1025B000702DC81AD90AEA0AFB0AA68DB78DA501A3
:1025C00094010E946B18C61AD70AE80AF90A30E487
:1025D000D30EE11CF11C0B2EBFE0F694E794D794C8
:1025E000C794BA95D1F7B02DA0A10A2E000CBB0B51
:1025F000A50194010E946B182B013C01032E3AE0C7
:1026000075946794579447943A95D1F7302DA38DDC
:10261000B0E00E946018DC01CB01072E7BE0B5958D
:10262000A795979587957A95D1F7702DBC01CD0127
:1026300070588F4F9F4FA30192010E94E117DC0158
:10264000CB01072E7AE0B595A795979587957A9552
:10265000D1F7702D9C01AD01405E5F4FA18DB28D11
:102660000E946B18DC01CB01905EAF4FBF4F9C0105
:10267000AD01012E1EE055954795379527951A9582
:10268000D1F7102DC701B6010E94E1176B017C0143
:10269000052E5FE095958795779567955A95D1F7C3
:1026A000502D9B01AC010E94E1179B01AC01689485
:1026B00016F855954795379527951694D1F7A08D1F
:1026C000B0E00E946018DC01CB01689413F8B59566
:1026D000A795979587951694D1F7A7019601281B82
:1026E000390B4A0B5B0BDA01C9011AF480E090E068
:1026F000DC0181309105A10539E1B30724F080E0C8
:1027000090E0A0E0B9E1BC01CD01052E5CE095951B
:102710008795779567955A95D1F7502DFF90EF9053
:10272000DF90CF90BF90AF909F908F907F906F90F1
:102730005F904F900895CF93DF93EA010E940414B5
:10274000CE010E94DD14DF91CF9108950E94011502
:10275000811103C08CE30E941F150895CF93C82FE9
:1027600080E80E943415811103C08C2F0E9434151B
:10277000CF910895CF92DF92EF92FF920F931F9324
:10278000CF93DF93E0ECF2E0E491EE2EF12C0E9487
:10279000F5140E94A613811126C0C1ECD2E01DC021
:1027A000FE0114913196849122960E94AE138823E3
:1027B00069F019C06E01FFEFCF1ADF0AFE018491A4
:1027C0000E94AE13102F81110EC0E6010FEF010F12
:1027D0001111F0CFF1E0EF1AF108E114F10401F763
:1027E0000E94481580E0DF91CF911F910F91FF90DB
:1027F000EF90DF90CF9008950E94A613811103C03F
:102800008FEA0E94AE130895CF93DF93C82FD62F7F
:102810000E94A61381112DC081E20E94AE13811186
:1028200028C08C2F0E94AE13811123C08FE70E9415
:10283000AE1381111EC08C2F90E0909310048093F2
:102840000F0482E20E94AE13811113C08D2F0E94EB
:10285000AE1381110EC087E00E94AE13811109C032
:102860008D2F90E090930E0480930D040E944815E4
:1028700080E0DF91CF910895CF93DF9360E080E017
:102880000E94041481111CC00E94A613811118C05B
:1028900080E40E943415811113C0C0E0D0E006C06E
:1028A00080E00E94341581110BC0219680910C01AB
:1028B00090910D01C817D90798F30E94481580E040
:1028C000DF91CF91089580910F04909110040696A6
:1028D0008038910538F020910D0430910E04273096
:1028E0003105D0F480389105C8F060910D047091E5
:1028F0000E0467307105A0F41092100410920F04BA
:102900006F5F7F4F70930E0460930D0480E00E9410
:102910000414882339F0089581E0089580E0089533
:1029200080E0089580E008951F93CF93DF93182FE0
:102930000E946314C82F811132C00E94A613811116
:1029400030C080E40E94341581112DC0D0E014C045
:10295000812F90E08097FC01EE0FFF1FEE0FFF1F0D
:10296000E80FF91FED0FF11DE052FF4F84910E9417
:10297000341581111AC0DF5FD53050F380E00E941A
:102980003415811114C080910F04909110040696A3
:102990009093100480930F040E94481509C0C1E071
:1029A00007C0C82F05C0C82F03C0C82F01C0C82F3B
:1029B0008C2FDF91CF911F9108950F931F93CF9389
:1029C000DF938C01C0E0D0E005C021960E949414F2
:1029D000811106C0F801EC0FFD1F80818111F5CF38
:1029E000DF91CF911F910F91089584E18093B800FA
:1029F000E9EBF0E08081908182708160892B808397
:102A00000895E9EBF0E080818775808384EA809304
:102A1000BC008091BC008823E4F78091B900887FD6
:102A2000883049F08091B900887F803131F0809101
:102A3000B900887F089580E0089580E00895880FA8
:102A40008093BB0084E88093BC008091BC00882305
:102A5000E4F78091B900887F883121F08091B90036
:102A6000887F089580E008958093BB0084E8809378
:102A7000BC008091BC008823E4F78091B900887F76
:102A8000883221F08091B900887F089580E0089510
:102A900084E98093BC0008955058BB27AA270E9460
:102AA00064150C94B5160E94A71638F00E94AE1655
:102AB00020F039F49F3F19F426F40C94A4160EF478
:102AC000E095E7FB0C949E16E92F0E94C61658F37A
:102AD000BA17620773078407950720F079F4A6F503
:102AE0000C94E8160EF4E0950B2EBA2FA02D0B01D6
:102AF000B90190010C01CA01A0011124FF27591B43
:102B000099F0593F50F4503E68F11A16F040A22F48
:102B1000232F342F4427585FF3CF469537952795B9
:102B2000A795F0405395C9F77EF41F16BA0B620BB8
:102B3000730B840BBAF09150A1F0FF0FBB1F661FFF
:102B4000771F881FC2F70EC0BA0F621F731F841F42
:102B500048F4879577956795B795F7959E3F08F068
:102B6000B0CF9395880F08F09927EE0F979587952A
:102B700008950E94CD150C94B5160E94AE1658F01B
:102B80000E94A71640F029F45F3F29F00C949E168E
:102B900051110C94E9160C94A4160E94C61668F301
:102BA0009923B1F3552391F3951B550BBB27AA2706
:102BB00062177307840738F09F5F5F4F220F331F40
:102BC000441FAA1FA9F335D00E2E3AF0E0E832D008
:102BD00091505040E695001CCAF72BD0FE2F29D00B
:102BE000660F771F881FBB1F261737074807AB07DD
:102BF000B0E809F0BB0B802DBF01FF2793585F4F52
:102C00003AF09E3F510578F00C949E160C94E9160C
:102C10005F3FE4F3983ED4F3869577956795B79533
:102C2000F7959F5FC9F7880F911D9695879597F93E
:102C30000895E1E0660F771F881FBB1F62177307B7
:102C40008407BA0720F0621B730B840BBA0BEE1FCC
:102C500088F7E09508950E9432166894B1110C949B
:102C6000E91608950E94CE1688F09F5798F0B92F64
:102C70009927B751B0F0E1F0660F771F881F991FB1
:102C80001AF0BA95C9F714C0B13091F00E94E81655
:102C9000B1E008950C94E816672F782F8827B85F65
:102CA00039F0B93FCCF3869577956795B395D9F709
:102CB0003EF490958095709561957F4F8F4F9F4F13
:102CC0000895E89409C097FB3EF49095809570951F
:102CD00061957F4F8F4F9F4F9923A9F0F92F96E968
:102CE000BB279395F695879577956795B795F111DD
:102CF000F8CFFAF4BB0F11F460FF1BC06F5F7F4F7A
:102D00008F4F9F4F16C0882311F096E911C077238B
:102D100021F09EE8872F762F05C0662371F096E894
:102D2000862F70E060E02AF09A95660F771F881F63
:102D3000DAF7880F9695879597F9089597F99F6721
:102D400080E870E060E008959FEF80EC0895002433
:102D50000A941616170618060906089500240A9400
:102D600012161306140605060895092E0394000C86
:102D700011F4882352F0BB0F40F4BF2B11F460FF15
:102D800004C06F5F7F4F8F4F9F4F089557FD90583E
:102D9000440F551F59F05F3F71F04795880F97FB1F
:102DA000991F61F09F3F79F08795089512161306D9
:102DB0001406551FF2CF4695F1DF08C01616170608
:102DC0001806991FF1CF869571056105089408953D
:102DD000E894BB2766277727CB0197F9089516F06B
:102DE0000C94AC170C94A41668940C949E160E9434
:102DF000CE16A8F39923C1F3AEF3DF93CF931F93BD
:102E00000F93FF92C92FDD2788232AF02197660FA1
:102E1000771F881FDAF720E030E040E85FEB9FE3A0
:102E2000883920F0803E38F021968F770E944D152A
:102E3000E6E8F0E004C00E944D15E3EBF0E00E94EC
:102E4000BA178B01BE01EC01FB2E6F577109759506
:102E5000771F880B990B0E94631628E132E741E344
:102E60005FE30E945217AF2D9801AE01FF900F91C2
:102E70001F91CF91DF910E9464150C94B5160E94AA
:102E800052170C94B5160E94A71638F00E94AE1681
:102E900020F0952311F00C949E160C94A416112486
:102EA0000C94E9160E94C61670F3959FC1F3950F16
:102EB00050E0551F629FF001729FBB27F00DB11DBE
:102EC000639FAA27F00DB11DAA1F649F6627B00D4E
:102ED000A11D661F829F2227B00DA11D621F739F37
:102EE000B00DA11D621F839FA00D611D221F749F45
:102EF0003327A00D611D231F849F600D211D822F8C
:102F0000762F6A2F11249F5750409AF0F1F08823B2
:102F10004AF0EE0FFF1FBB1F661F771F881F9150DF
:102F20005040A9F79E3F510580F00C949E160C94DA
:102F3000E9165F3FE4F3983ED4F38695779567955D
:102F4000B795F795E7959F5FC1F7FE2B880F911D09
:102F50009695879597F908959F3F31F0915020F409
:102F6000879577956795B795880F911D9695879565
:102F700097F90895DF93CF931F930F93FF92EF92EA
:102F8000DF927B018C01689406C0DA2EEF010E946B
:102F90005217FE01E894A5912591359145915591DF
:102FA000A6F3EF010E946415FE019701A801DA94CF
:102FB00069F7DF90EF90FF900F911F91CF91DF9114
:102FC0000895DB018F939F930E946018BF91AF918A
:102FD000A29F800D911DA39F900DB29F900D112473
:102FE0000895AA1BBB1B51E107C0AA1FBB1FA61750
:102FF000B70710F0A61BB70B881F991F5A95A9F7A2
:1030000080959095BC01CD01089597FB072E16F48D
:10301000009407D077FD09D00E94F11707FC05D076
:103020003EF4909581959F4F0895709561957F4FDF
:103030000895A1E21A2EAA1BBB1BFD010DC0AA1FF9
:10304000BB1FEE1FFF1FA217B307E407F50720F011
:10305000A21BB30BE40BF50B661F771F881F991F8C
:103060001A9469F760957095809590959B01AC01D5
:10307000BD01CF010895052E97FB1EF400940E9418
:10308000521857FD07D00E94191807FC03D04EF4C0
:103090000C94521850954095309521953F4F4F4FC5
:1030A0005F4F089590958095709561957F4F8F4FF4
:1030B0009F4F0895EE0FFF1F0590F491E02D0994A6
:1030C0000E94F819A59F900DB49F900DA49F800DAC
:1030D000911D11240895B7FF0C9460180E94601888
:1030E000821B930B0895DF93CF931F930F939A9DA9
:1030F000F02D219FF00D8B9DF00D8A9DE02DF10D9F
:10310000039FF00D029FE00DF11D4E9DE00DF11D9E
:103110005E9DF00D4F9DF00D7F936F93BF92AF9228
:103120005F934F93D5010E94F8198B01AC01D70131
:103130000E94F819EB01E80FF91FD6010E94C3188D
:103140002F913F91D6010E94F819C60FD71FE81F93
:10315000F91FAF91BF910E94C3182F913F910E9418
:10316000F819C60FD71FE81FF91FD6010E94F819DA
:10317000E60FF71F9801BE01CF0111240F911F9197
:10318000CF91DF9108950E94F819460F571FC81F6D
:10319000D91F08F431960895689401C0E894F92F76
:1031A000F12B12F00C940019A0E0B0E0EAEDF8E188
:1031B0000C947219092E059422F40E945C191123B3
:1031C00092F4F0E80F26FFEFE094F094009510954C
:1031D000B094C094D094A194BF0ACF0ADF0AEF0A3A
:1031E000FF0A0F0B1F0B0E940B1907FC0E945C19B2
:1031F000CDB7DEB7ECE00C948E19689401C0E8946A
:103200008F929F92CF93DF930E940B19DF91CF9102
:103210009F908F90089588249924F401E401B0E4EC
:103220009F93AA279A158B049C04ED05FE05CF05F4
:10323000D007A10798F4AD2FDC2FCF2FFE2FE92D5B
:10324000982C892E982F872F762F652F542F432F58
:10325000322F2227B85031F7BF9127C01B2EBF91C4
:10326000BB27220F331F441F551F661F771F881F60
:10327000991F881C991CEE1FFF1FCC1FDD1FAA1F62
:10328000BB1F8A149B04EC05FD05CE05DF05A007D6
:10329000B10748F08A189B08EC09FD09CE09DF093F
:1032A000A00BB10B21601A94E1F62EF49401AF014A
:1032B000BE01CD01000C08956095709580959095A4
:1032C00030954095509521953F4F4F4F5F4F6F4F31
:1032D0007F4F8F4F9F4F08952F923F924F925F9253
:1032E0006F927F928F929F92AF92BF92CF92DF9216
:1032F000EF92FF920F931F93CF93DF93CDB7DEB77B
:10330000CA1BDB0B0FB6F894DEBF0FBECDBF09940E
:103310002A88398848885F846E847D848C849B8465
:10332000AA84B984C884DF80EE80FD800C811B8173
:10333000AA81B981CE0FD11D0FB6F894DEBF0FBEA2
:10334000CDBFED0108950F93083090F0982F872F8F
:10335000762F652F542F432F322F22270850F4CF7A
:10336000220F331F441F551F661F771F881F991F89
:103370000A95B2F70F91089597FB10F8169400087C
:103380000F93083098F00850232F342F452F562FD5
:10339000672F782F892F902DF4CF059497958795D7
:1033A0007795679557954795379527950A95AAF785
:1033B0000F9108952A0D3B1D4C1D5D1D6E1D7F1D37
:1033C000801F911F08952A193B094C095D096E0958
:1033D0007F09800B910B08950024A7FD00942A1704
:1033E000300540055005600570058005900508957D
:1033F000A29FB001B39FC001A39F700D811D112436
:10340000911DB29F700D811D1124911D0895FB0126
:10341000DC018D91019080190110D9F3990B089569
:04342000F894FFCF4E
:1034240002140001020304050607080900043C35E0
:1034340055503E003C35444F574E3E003C35454EBA
:103444005445523E00526F6F6D204D6963726F6335
:103454006C696D6174650051756F7465206F6620C9
:103464004461790053797374656D2053657474698C
:103474006E6773004755492056657273696F6E20F5
:10348400562D312E30004241434B00437265617426
:103494006520796F75722062657374006B6E6F7747
:1034A4006C65646765206C69627261727921004F92
:1034B400757470757420646174613A203000200062
:1034C4005379732054696D652030303A30303A3086
:1034D400300054656D702030302E30302043005061
:1034E40072657320303030302E3020685061005BBC
:1034F40030303A30303A30305D7C543A30302E300F
:1035040030437C503A303030302E306850610A00FD
:103514003C504153533E0050415353574F52442063
:103524004143434550544544210A003C30303E0059
:10353400436C656172696E67205553415254206231
:1035440075666665720A003C31303E00436C656105
:1035540072696E6720636C6F636B0A003C31313EA5
:103564000053746F7070696E6720636C6F636B0ACD
:10357400003C31323E005374617274696E6720639B
:103584006C6F636B0A0053657474696E6720636CB7
:103594006F636B0A0053657474696E6720616C61B4
:1035A400726D0A003C33303E00436C656172696E93
:1035B4006720636F756E74646F776E0A003C3331F5
:1035C4003E0053746F7070696E6720636F756E741C
:1035D400646F776E0A003C33323E00537461727438
:1035E400696E6720636F756E74646F776E0A00533B
:1035F400657474696E6720636F756E74646F776E3B
:103604000A003C32303E00436C656172696E67208B
:103614006368726F6E6F6D657465720A003C323157
:103624003E0053746F7070696E67206368726F6ECA
:103634006F6D657465720A003C32323E00537461EA
:103644007274696E67206368726F6E6F6D657465FE
:10365400720A003C32333E00536176696E67206122
:10366400206C61700A003C34303E00444953504C95
:1036740041593A434C4F434B0A003C34313E0044D9
:103684004953504C41593A434F554E54444F574E69
:103694000A003C34323E00444953504C41593A43A9
:1036A40048524F4E4F4D455445520A003C34333E28
:1036B40000444953504C41593A414C41524D0A003F
:1036C4003C34343E00444953504C41593A54454DDE
:1036D40050455241545552450A003C34353E00444D
:0C36E4004953504C41593A4C41500A00E7
:00000001FF
