S00F000050524F4A4543542E73726563FE
S11300000C9468000C9494070C9485000C9485005F
S11300100C9485000C9485000C9485000C941707AF
S11300200C9485000C9485000C9485000C94ED06CA
S11300300C9485000C9485000C948B060C9485001C
S11300400C9485000C9485000C9451070C94850045
S11300500C9485000C9485000C9485000C94850008
S11300600C9485000C948500B006B706A906C50655
S1130070BE06D306CC0608000000BE922449123EF8
S1130080ABAAAA2ABECDCCCC4C3E00000080BEABAD
S1130090AAAAAA3E00000000BF000000803F0000A2
S11300A0000000084178D3BB4387D1133D190E3CAF
S11300B0C3BD4282AD2B3E68EC8276BED98FE1A9E6
S11300C03E4C80EFFFBE01C4FF7F3F0000000000F4
S11300D011241FBECFEFD8E0DEBFCDBF12E0A0E0F9
S11300E0B1E0E6E8F5E102C005900D92A83EB10743
S11300F0D9F723E0A8EEB2E001C01D92AB36B207F7
S1130100E1F70E9418050C94C10A0C940000FC014C
S113011081818F5F81838C3324F0118282818F5F90
S1130120828382818C3324F0128283818F5F838364
S1130130838188310CF013820895FC018081815001
S1130140808388232CF484E6808381818150818399
S1130150818188232CF48BE3818382818150828383
S1130160828188232CF48BE382838381815083836F
S11301708381882324F410821182128213820895C9
S1130180FC0180818F5F8083843624F0108281811A
S11301908F5F818381818C3324F0118282818F5F10
S11301A0828382818C3324F0128283818F5F8383E4
S11301B0838188310CF013820895CF93DF93DC019F
S11301C0FB012C9197E62902812D112485958595B3
S11301D027FD8395880F382F330F330F830F281B88
S11301E0EA01C20FD11D27FDDA95888180832C9105
S11301F02902812D11248595859527FD8395EA0192
S1130200C80FD11D87FDDA958881818311962C91C1
S113021011972902812D11248595859527FD8395B4
S1130220880F382F330F330F830F281BEA01C20FB7
S1130230D11D27FDDA958881828311962C9111971F
S11302402902812D11248595859527FD8395EA0141
S1130250C80FD11D87FDDA958881838312962C916E
S113026012972902812D11248595859527FD839563
S1130270880F382F330F330F830F281BEA01C20F67
S1130280D11D27FDDA958881848312962C911297CB
S11302902902812D11248595859527FD8395EA01F1
S11302A0C80FD11D87FDDA958881858313962C911B
S11302B013972902812D11248595859527FD839512
S11302C0880F382F330F330F830F281BEA01C20F17
S11302D0D11D27FDDA958881868313968C91890236
S11302E0912D11249595959587FD9395DA01A90F84
S11302F0B11D97FDBA958C918783DF91CF910895B5
S11303009091E80291110BC098B121E030E002C055
S1130310220F331F6A95E2F7292B28B90BC098B135
S113032021E030E002C0220F331F6A95E2F72095E6
S1130330292328B99091E802FA01E90FF11D2081DF
S113034060E1269F900111242F602BB948B121E070
S113035030E0B90102C0660F771F8A95E2F7CB013E
S1130360942F982B98B900000000000098B1809554
S1130370892388B98091E8028F5F8093E8028830EE
S113038011F41092E802089582E480937C001092A4
S11303907B0087E880937A000895ECE7F0E0908191
S11303A0907F892B8083EAE7F0E0808180648083FA
S11303B080917A0086FDFCCF80917800909179003D
S11303C008958FE08093690083E08DBB089580E2F7
S11303D084B915B883E087B918B880EF8AB98CE07E
S11303E08BB90895813059F018F0823089F008955E
S11303F085B5887F85BD85B5682B65BD0895E1E821
S1130400F0E08081887F80838081682B60830895F9
S1130410E1EBF0E08081887F80838081682B6083BA
S1130420089516BC8AE087BD84B5826084BDEEE67B
S1130430F0E080818260808365E080E00E94F201C8
S11304400895109285001092840089E09DE39093B2
S1130450890080938800E1E8F0E0808188608083EF
S1130460EFE6F0E080818260808365E081E00E94B5
S1130470F20108951092B2008CE98093B300E0EB8E
S1130480F0E0808182608083E0E7F0E08081826038
S1130490808367E082E00E94F2010895813041F098
S11304A018F0823059F0089585B5887F85BD089588
S11304B0E1E8F0E08081887F80830895E1EBF0E05B
S11304C08081887F8083089587E690E09093C500BB
S11304D08093C40088E98093C10086E08093C200C1
S11304E00895AC0120E007C09091C00095FFFCCFB7
S11304F03093C6002F5FFA01E20FF11D30813111F4
S1130500F3CF0895CF93DF93C0E0D0E009C0CE01CC
S113051040960E94B90AFE01E25BFC4F808321965B
S1130520CB30D105A4F310925803C091F202C3302A
S1130530E0F78091F4028130C1F76BE071E08DE364
S113054093E00E94B00A892B51F482E191E00E9469
S113055071021092F4028FE08093000104C0CF5F17
S1130560C093F202E2CFDF91CF910895EF92FF9210
S11305700F931F93CF93DF93EC018B017A010E94B9
S11305808700A701B801CE010E94DD00DF91CF9161
S11305901F910F91FF90EF900895EF92FF920F93A8
S11305A01F93CF93DF93EC018B017A010E94C0006B
S11305B0A701B801CE010E94DD00DF91CF911F9108
S11305C00F91FF90EF900895EF92FF920F931F9376
S11305D0CF93DF93EC018B017A010E949D00A70168
S11305E0B801CE010E94DD00DF91CF911F910F91E0
S11305F0FF90EF900895E5E2F3E083836283418303
S113060020830895E7E6F3E08383628341832083B4
S11306100895EFE5F3E083836283418320830895A3
S1130620E3E6F3E0838362834183208308950F9399
S11306301F93CF938C01FC01C181C23309F42AC1F9
S113064028F4C03351F0C133A9F0EEC1C33309F427
S1130650B8C0C43309F48BC1E7C166E271E00E94FB
S1130660B00A892B09F0E0C18BE291E00E9471028B
S113067081E0DAC162E471E00E94B00A892B61F47E
S113068020E040E060E080E00E94FB0287E491E02B
S11306900E94710282E0C8C167E571E0C8010E944E
S11306A0B00A892B49F481E00E944E028CE591E066
S11306B00E94710283E0B8C16CE671E0C8010E9437
S11306C0B00A892B51F481E791E00E94710265E040
S11306D081E00E94F20184E0A7C1C13399F5F801D9
S11306E08281833379F581E891E00E947102F801F7
S11306F0838190E0C097880F982F990F990F890FE5
S11307009481890F258130E020533109220F622F13
S1130710660F660F260F9681622F690F605327813B
S113072030E020533109220F422F440F440F240F8D
S11307309085422F490F405320E080530E94FB02D2
S113074085E072C1C13309F06FC1F801828184333D
S113075009F06AC180E991E00E947102F801838185
S113076090E0C097880F982F990F990F890F948163
S1130770890F258130E020533109220F622F660F43
S1130780660F260F9681622F690F6053278130E030
S113079020533109220F422F440F440F240F908518
S11307A0422F490F405320E080530E94020341E04E
S11307B051E065E073E087E693E00E94DD0086E0A7
S11307C033C16FE971E00E94B00A892B61F484EAB5
S11307D091E00E94710220E040E060E080E00E942D
S11307E0FB0287E021C168EB71E0C8010E94B00AF6
S11307F0892B49F48DEB91E00E94710282E00E9402
S11308004E0288E011C161ED71E0C8010E94B00A96
S1130810892B51F486ED91E00E94710267E082E039
S11308200E94F20189E000C1C33309F0FDC0F80160
S11308308281833309F0F8C08AEE91E00E9471024C
S1130840F801838190E0C097880F682F660F660FC8
S1130850860F9481682F690F6053858190E0C0975B
S1130860880F482F440F440F840F9681482F490F57
S11308704053878190E0C097880F282F220F220FC2
S1130880820F9085282F290F205380E00E941003A7
S11308908AE0CAC06DEF71E00E94B00A892B61F44E
S11308A082E092E00E94710220E040E060E080E09B
S11308B00E9409038BE0B8C068E172E0C8010E949D
S11308C0B00A892B49F48DE192E00E94710282E022
S11308D00E944E028CE0A8C063E372E0C8010E944B
S11308E0B00A892B51F488E392E00E94710267E018
S11308F082E00E94F2018DE097C06EE472E0C801CC
S11309000E94B00A892B09F08FC083E592E00E940F
S113091071028091F3028530C0F4E82FF0E0AFE576
S1130920B3E09C91EE0FFF1FEE0FFF1FE75DFC4F3E
S1130930908311969C911197918312969C91928326
S11309408F5F8093F3028EE06FC0AFE5B3E08C91CC
S1130950E9E2F3E0808311968C91119781831296DA
S11309608C91828381E08093F3028EE05DC061E626
S113097072E00E94B00A892B41F486E692E00E945C
S113098071028FE0809300014FC065E772E0C801F7
S11309900E94B00A892B41F48AE792E00E94710216
S11309A080E18093000140C06DE872E0C8010E94BC
S11309B0B00A892B51F41092F30282E992E00E946A
S11309C0710281E1809300012FC067EA72E0C801DF
S11309D00E94B00A892B41F48CEA92E00E947102D1
S11309E082E18093000120C06BEB72E0C8010E9499
S11309F0B00A892B41F480EC92E00E94710283E1F9
S1130A008093000111C065ED72E0C8010E94B00A34
S1130A10892B51F41092F3028AED92E00E94710244
S1130A2085E18093000100C0CF911F910F9108953B
S1130A300E94E7010E94640278942FEF39E648E1AE
S1130A40215030404040E1F700C000000E94820283
S1130A500E94E1010E94C4010E9411020E9421022D
S1130A600E943A028EE18093680341E051E065E020
S1130A7073E087E693E00E94DD008091F402813008
S1130A8041F48DE393E00E94170380934D03109289
S1130A90F40280910001833109F0CDC082E00E940C
S1130AA0CD019C019093F1028093F002AC01440FBC
S1130AB0551F880F991F880F991F880F991F840F3E
S1130AC0951F60E074E0621B730B0E94820A7093AE
S1130AD0EF026093EE0280E090E00E94020920E0C1
S1130AE030E040E251E40E945A080E9498092CE246
S1130AF03BEB44E859E30E94E00922E63BEE4BE578
S1130B005BE30E94EE079B01AC0160E070E080E8CB
S1130B109FE30E945A086B017C016093EA02709380
S1130B20EB028093EC029093ED020E94CC08C62F56
S1130B30862F972F64E670E00E94960AD62F08E469
S1130B4013E0F8016383F4E66F9FC0191124F801E0
S1130B50C283F4E66F02B0011124072E000C880B47
S1130B60990B0E9404099B01AC01C701B6010E94C4
S1130B70ED074B015C016C2FCC0F770B880B990BA5
S1130B800E9404092B013C019B01AC01C501B40185
S1130B900E94ED072AE037ED43E25CE30E945A0825
S1130BA00E94CC08C62FF80161836D2FDD0F770BEF
S1130BB0880B990B0E94040920E030E048EC52E4D1
S1130BC00E94E0099B01AC01C701B6010E94ED0738
S1130BD0A30192010E94ED076B017C016C2FCC0FE5
S1130BE0770B880B990B0E9404092AE037ED43E246
S1130BF05CE30E94E0099B01AC01C701B6010E94BD
S1130C00ED0727E137EB41ED58E30E945A080E94B3
S1130C10CC08F801608341E051E06DEF72E0C80157
S1130C200E94DD00FFEF23EC39E0F150204030401A
S1130C30E1F700C0000080910001853189F58093BF
S1130C4000014FEF89E698E1415080409040E1F780
S1130C5000C000008091F30290E00196069714F022
S1130C601092F3028091F30290E09C012F5F3F4FBA
S1130C70880F991F880F991F875D9C4F220F322F71
S1130C80330F330F230FFC01238341E051E065EF61
S1130C9072E00E94DD008091F3028F5F8093F30283
S1130CA0809100018F3009F0E8CE90912803809163
S1130CB06A039813E2CE90912703809169039813F5
S1130CC0DCCE90912603809168039813D6CE1AC087
S1130CD022E120930001FFEF29E638E1F1502040A2
S1130CE03040E1F700C0000024E1209300014FEF01
S1130CF0E9E6F8E14150E040F040E1F700C00000CF
S1130D00019602C080E090E0833091050CF38FE0FF
S1130D1080930001B2CE1F920F920FB60F9211244E
S1130D202F933F934F935F936F937F938F939F93EF
S1130D30AF93BF93EF93FF93E09100018E2F90E068
S1130D40FC013F97E730F10598F5EC5CFF4F0C94FC
S1130D50AA0A4DE053E061E080E00E9480012CC0CB
S1130D604DE153E061E080E00E94800125C045E14F
S1130D7053E061E080E00E9480011EC04DEF52E02C
S1130D8061E080E00E94800117C045E053E061E02B
S1130D9080E00E94800110C045EF52E061E080E0F5
S1130DA00E94800109C098B181E0892788B904C0F4
S1130DB098B181E0892788B9FF91EF91BF91AF91F4
S1130DC09F918F917F916F915F914F913F912F915F
S1130DD00F900FBE0F901F9018951F920F920FB691
S1130DE00F9211242F933F934F935F936F937F93AD
S1130DF08F939F93AF93BF93EF93FF9341E051E0A1
S1130E006DE173E085E293E00E94B602FF91EF91F9
S1130E10BF91AF919F918F917F916F915F914F910E
S1130E203F912F910F900FBE0F901F9018951F9216
S1130E300F920FB60F9211242F933F934F935F930A
S1130E406F937F938F939F93AF93BF93EF93FF938E
S1130E5080910001803119F0813151F011C041E0DD
S1130E6051E065E173E083E693E00E94E40208C088
S1130E7041E051E06DE073E08FE593E00E94CD0224
S1130E80FF91EF91BF91AF919F918F917F916F915E
S1130E905F914F913F912F910F900FBE0F901F9034
S1130EA018951F920F920FB60F9211242F933F9310
S1130EB08F939F93EF93FF938091E90290E02091A9
S1130EC0C600FC01E35CFC4F208330913D033C33BE
S1130ED041F40EC0E82FF0E0E35CFC4F10828F5F1A
S1130EE001C080E08B30B0F38FEF8093E9020CC037
S1130EF02E3351F4FC01E25CFC4F10828FEF80939F
S1130F00E90281E08093F4028091E9028F5F80938B
S1130F10E902FF91EF919F918F913F912F910F9053
S1130F200FBE0F901F9018951F920F920FB60F923D
S1130F3011242F933F934F935F936F937F938F93DA
S1130F409F93AF93BF93EF93FF9395B180E289276B
S1130F5085B983E592E00E9471028091000181319C
S1130F6059F58091F3028530B8F4E82FF0E0AFE54D
S1130F70B3E09C91EE0FFF1FEE0FFF1FE75DFC4FE8
S1130F80908311969C911197918312969C919283D0
S1130F908F5F8093F30210C0AFE5B3E08C91E9E278
S1130FA0F3E0808311968C911197818312968C9132
S1130FB0828381E08093F302FF91EF91BF91AF911F
S1130FC09F918F917F916F915F914F913F912F915D
S1130FD00F900FBE0F901F9018955058BB27AA274B
S1130FE00E9405080C9456090E94480938F00E9492
S1130FF04F0920F039F49F3F19F426F40C94450965
S11310000EF4E095E7FB0C943F09E92F0E94670971
S113101058F3BA17620773078407950720F079F429
S1131020A6F50C9489090EF4E0950B2EBA2FA02D89
S11310300B01B90190010C01CA01A0011124FF2781
S1131040591B99F0593F50F4503E68F11A16F0407C
S1131050A22F232F342F4427585FF3CF469537957B
S11310602795A795F0405395C9F77EF41F16BA0B40
S1131070620B730B840BBAF09150A1F0FF0FBB1FEE
S1131080661F771F881FC2F70EC0BA0F621F731F37
S1131090841F48F4879577956795B795F7959E3F94
S11310A008F0B0CF9395880F08F09927EE0F979525
S11310B0879508950E946E080C9456090E944F0962
S11310C058F00E94480940F029F45F3F29F00C943D
S11310D03F0951110C948A090C9445090E9467092F
S11310E068F39923B1F3552391F3951B550BBB2753
S11310F0AA2762177307840738F09F5F5F4F220F98
S1131100331F441FAA1FA9F335D00E2E3AF0E0E88E
S113111032D091505040E695001CCAF72BD0FE2FD8
S113112029D0660F771F881FBB1F2617370748076C
S1131130AB07B0E809F0BB0B802DBF01FF27935824
S11311405F4F3AF09E3F510578F00C943F090C94A0
S11311508A095F3FE4F3983ED4F3869577956795C3
S1131160B795F7959F5FC9F7880F911D9695879559
S113117097F90895E1E0660F771F881FBB1F621778
S113118073078407BA0720F0621B730B840BBA0B36
S1131190EE1F88F7E09508950E94D3086894B11172
S11311A00C948A0908950E946F0988F09F5798F05B
S11311B0B92F9927B751B0F0E1F0660F771F881F58
S11311C0991F1AF0BA95C9F714C0B13091F00E9472
S11311D08909B1E008950C948909672F782F88272D
S11311E0B85F39F0B93FCCF3869577956795B39599
S11311F0D9F73EF490958095709561957F4F8F4F08
S11312009F4F0895E89409C097FB3EF4909580950C
S1131210709561957F4F8F4F9F4F9923A9F0F92FB8
S113122096E9BB279395F695879577956795B79536
S1131230F111F8CFFAF4BB0F11F460FF1BC06F5F1C
S11312407F4F8F4F9F4F16C0882311F096E911C02E
S1131250772321F09EE8872F762F05C0662371F04F
S113126096E8862F70E060E02AF09A95660F771F63
S1131270881FDAF7880F9695879597F9089597F957
S11312809F6780E870E060E008959FEF80EC089528
S113129000240A9416161706180609060895002451
S11312A00A9412161306140605060895092E0394CB
S11312B0000C11F4882352F0BB0F40F4BF2B11F43F
S11312C060FF04C06F5F7F4F8F4F9F4F089557FD9E
S11312D09058440F551F59F05F3F71F04795880FA0
S11312E097FB991F61F09F3F79F087950895121637
S11312F013061406551FF2CF4695F1DF08C01616E3
S113130017061806991FF1CF869571056105089493
S11313100895E894BB2766277727CB0197F90895AA
S113132016F00C944D0A0C94450968940C943F09EA
S11313300E946F09A8F39923C1F3AEF3DF93CF930F
S11313401F930F93FF92C92FDD2788232AF021973B
S1131350660F771F881FDAF720E030E040E85FEB84
S11313609FE3883920F0803E38F021968F770E94E1
S1131370EE07E6E7F0E004C00E94EE07E3EAF0E0DF
S11313800E945B0A8B01BE01EC01FB2E6F577109B1
S11313907595771F880B990B0E94040928E132E7A1
S11313A041E35FE30E94F309AF2D9801AE01FF9082
S11313B00F911F91CF91DF910E9405080C9456095B
S11313C00E94F3090C9456090E94480938F00E94BF
S11313D04F0920F0952311F00C943F090C94450912
S11313E011240C948A090E94670970F3959FC1F334
S11313F0950F50E0551F629FF001729FBB27F00DBF
S1131400B11D639FAA27F00DB11DAA1F649F662713
S1131410B00DA11D661F829F2227B00DA11D621F62
S1131420739FB00DA11D621F839FA00D611D221F1C
S1131430749F3327A00D611D231F849F600D211D00
S1131440822F762F6A2F11249F5750409AF0F1F083
S113145088234AF0EE0FFF1FBB1F661F771F881FEC
S113146091505040A9F79E3F510580F00C943F09DC
S11314700C948A095F3FE4F3983ED4F386957795FC
S11314806795B795F795E7959F5FC1F7FE2B880F92
S1131490911D9695879597F908959F3F31F0915046
S11314A020F4879577956795B795880F911D969544
S11314B0879597F90895DF93CF931F930F93FF9226
S11314C0EF92DF927B018C01689406C0DA2EEF0163
S11314D00E94F309FE01E894A59125913591459167
S11314E05591A6F3EF010E940508FE019701A8019A
S11314F0DA9469F7DF90EF90FF900F911F91CF91ED
S1131500DF910895AA1BBB1B51E107C0AA1FBB1F93
S1131510A617B70710F0A61BB70B881F991F5A957B
S1131520A9F780959095BC01CD01089597FB072EEE
S113153016F4009407D077FD09D00E94820A07FCB4
S113154005D03EF4909581959F4F089570956195CF
S11315507F4F0895EE0FFF1F0590F491E02D09943D
S1131560FB01DC018D91019080190110D9F3990BD5
S11315700895F999FECF92BD81BDF89A992780B557
S10915800895F894FFCF6A
S113158614000102030405060708093C504153539D
S11315963E0050415353574F524420414343455014
S11315A6544544210A003C30303E00436C65617268
S11315B6696E67205553415254206275666665729A
S11315C60A003C31303E00436C656172696E6720E7
S11315D6636C6F636B0A003C31313E0053746F7069
S11315E670696E6720636C6F636B0A003C31323E30
S11315F6005374617274696E6720636C6F636B0A5F
S11316060053657474696E6720636C6F636B0A00BC
S113161653657474696E6720616C61726D0A003C6F
S113162633303E00436C656172696E6720636F7583
S11316366E74646F776E0A003C33313E0053746FE8
S11316467070696E6720636F756E74646F776E0A67
S1131656003C33323E005374617274696E672063D2
S11316666F756E74646F776E0A0053657474696E71
S11316766720636F756E74646F776E0A003C323050
S11316863E00436C656172696E67206368726F6EB3
S11316966F6D657465720A003C32313E0053746F97
S11316A67070696E67206368726F6E6F6D657465BE
S11316B6720A003C32323E005374617274696E677A
S11316C6206368726F6E6F6D657465720A003C32D2
S11316D6333E00536176696E672061206C61700A3F
S11316E6003C34303E00444953504C41593A434C33
S11316F64F434B0A003C34313E00444953504C415D
S1131706593A434F554E54444F574E0A003C3432CF
S11317163E00444953504C41593A4348524F4E4F68
S11317264D455445520A003C34333E004449535017
S11317364C41593A414C41524D0A003C34343E0026
S1131746444953504C41593A54454D5045524154DD
S11317565552450A003C34353E00444953504C41E9
S10B1766593A4C41500A0000FD
S9030000FC
