:100000000C9497010C94ED0D0C94B4010C94B40174
:100010000C94B4010C94B4010C94B4010C94700DC4
:100020000C94B4010C94B4010C94B4010C94C40C61
:100030000C94B4010C94B4010C94620C0C94B401B3
:100040000C94B4010C94B4010C94AA0D0C94B4015A
:100050000C94B4010C94B4010C94B4010C94B4014C
:100060000C94B4010C94B401620369037003770328
:100070007E0385038C039303B108BE08C809610998
:10008000350A920AC20AC20AC20AC20AC20AC20ACD
:10009000C20AC20AC20AC20AC20AC20AC20AC20A00
:1000A000C20AC20AC20AC20AC20AC20AC20AC20AF0
:1000B000C20A980A870C8E0C800C9C0C950CAA0C1A
:1000C000A30C08000000BE922449123EABAAAA2A43
:1000D000BECDCCCC4C3E00000080BEABAAAAAA3E4E
:1000E00000000000BF000000803F0000000000088A
:1000F0004178D3BB4387D1133D190E3CC3BD428227
:10010000AD2B3E68EC8276BED98FE1A93E4C80EFE4
:10011000FFBE01C4FF7F3F000000000000000000A0
:100120000000005F00000007000700147F147F1428
:10013000242A7F2A1223130864623649552250006C
:1001400005030000001C2241000041221C0014088D
:100150003E081408083E080800503000000808084F
:100160000808006060000020100804023E51494564
:100170003E00427F400042615149462141454B319A
:100180001814127F1027454545393C4A494930012A
:10019000710905033649494936064949291E003681
:1001A00036000000563600000814224100141414D2
:1001B0001414004122140802015109063249794100
:1001C0003E7E1111117E7F494949363E414141220F
:1001D0007F4141221C7F494949417F090909013E6C
:1001E0004149497A7F0808087F00417F410020404B
:1001F000413F017F081422417F404040407F020C74
:10020000027F7F0408107F3E4141413E7F0909097A
:10021000063E4151215E7F09192946464949493127
:1002200001017F01013F4040403F1F2040201F3F10
:100230004038403F63140814630708700807615191
:10024000494543007F41410002040810200041411C
:100250007F000402010204404040404000010204CB
:100260000020545454787F4844443838444444204F
:10027000384444487F3854545418087E0901020C0D
:100280005252523E7F0804047800447D40002040D2
:10029000443D007F1028440000417F40007C04184A
:1002A00004787C0804047838444444387C141414DA
:1002B00008081414147C7C0804040848545454207E
:1002C000043F4440203C4040207C1C2040201C3CFB
:1002D0004030403C44281028440C5050503C44646A
:1002E000544C44000836410000007F0000004136B5
:1002F0000800100808100800000000001200AE01FD
:10030000A83F0120000221007F02220007004001D7
:10031000D30000A100C801DA1201817F00A400A669
:1003200001D58001D9C201DB20018D1400AF112459
:100330001FBECFEFD8E0DEBFCDBF14E0A0E0B1E03C
:10034000E8E2F6E302C005900D92A030B107D9F7BC
:1003500024E0A0E0B4E001C01D92AB3BB207E1F79E
:100360000E94C60A0C94121B0C940000FC018181AF
:100370008F5F81838C3324F0118282818F5F82832F
:1003800082818C3324F0128283818F5F8383838107
:1003900088310CF0138208950F931F93CF93DF934E
:1003A000FC01208123FD29C08B01EC016EE071E08E
:1003B000C8010E94091B892B31F488818160886003
:1003C000888386E11DC064E171E0C8010E94091BB9
:1003D000892B31F4888182608860888387E110C02E
:1003E0006CE171E0C8010E94091B892B41F48881EE
:1003F00084608860888388E103C080E001C080E079
:10040000DF91CF911F910F910895FC018081815060
:10041000808388232CF484E68083818181508183CA
:10042000818188232CF48BE38183828181508283B4
:10043000828188232CF48BE38283838181508383A0
:100440008381882324F410821182128213820895FA
:10045000FC0180818F5F8083843624F0108281814B
:100460008F5F818381818C3324F0118282818F5F41
:10047000828382818C3324F0128283818F5F838315
:10048000838188310CF013820895CF93DF93EB01C1
:10049000813021F130F0823009F442C0833049F1DB
:1004A00055C00E943E1545E251E062E08AE00E949C
:1004B0009D1447E351E063E08AE00E949D1444E408
:1004C00051E064E08AE00E949D1444E551E067E059
:1004D0008AE00E949D140E94FE1438C00E943E15BE
:1004E00046E651E067E08AE00E949D140E94FE14F7
:1004F0002DC00E943E154BE651E063E08AE00E9469
:100500009D144CE751E064E08AE00E949D1446E6A9
:1005100051E067E08AE00E949D140E94FE1416C01C
:100520000E943E15888182958170805D80939C0138
:100530004FE851E062E08AE00E949D1446E651E0F7
:1005400067E08AE00E949D140E94FE14DF91CF9123
:100550000895CF93DF93EC01988193FF98C0DA015F
:10056000FB0190FF24C0892F8E7F888380818823A0
:1005700019F0823081F088C08C91833039F084305A
:1005800041F0823041F484E08C9305C082E08C938A
:1005900002C083E08C938C91823019F0873021F077
:1005A00073C087E08C9370C082E08C936DC091FF24
:1005B00024C088818D7F88838081882319F08230D0
:1005C00081F062C08C91833039F0843041F0823008
:1005D00041F483E08C9305C084E08C9302C082E0F8
:1005E0008C938C91823019F0873021F04DC087E0D8
:1005F0008C934AC082E08C9347C092FF45C08881AB
:100600008B7F888380818130E1F028F08230E9F0AF
:10061000833099F135C08C91833049F0843061F09A
:10062000823071F587E08C9381E0808329C087E078
:100630008C9383E0808324C087E08C9382E0808366
:100640001FC082E08C9310821BC08C91823019F005
:10065000873079F015C082E08C93888184FF03C0D5
:100660008F7E888303C088818061888382E0808355
:1006700007C082E08C93108203C082E08C931082CA
:10068000BE0180810E9445028881877F8883DF9137
:10069000CF910895CF93DF93D82FC0E007C04EE9E4
:1006A00051E06C2F80E00E949D14CF5FC830B8F3FA
:1006B0008D2F90E088309105E0F5FC01EC5CFF4F58
:1006C0000C945C194BE252E060E080E00E949D14C3
:1006D00030C04BE252E061E080E00E949D1429C0EE
:1006E0004BE252E062E080E00E949D1422C04BE2A7
:1006F00052E063E080E00E949D141BC04BE252E098
:1007000064E080E00E949D1414C04BE252E065E07A
:1007100080E00E949D140DC04BE252E066E080E054
:100720000E949D1406C04BE252E067E080E00E9408
:100730009D140E94FE14DF91CF910895E0EAF1E04C
:1007400027E69202312D11243595359597FD339585
:1007500040E3430F4187330F432F440F440F340FBF
:10076000931B905D92878202912D1124959595950A
:1007700087FD939530E3390F3487990F392F330F65
:10078000330F930F891B805D85877202212D112401
:100790002595259577FD239580E3820F8787220F86
:1007A000822F880F880F280F721B705D708BAF012E
:1007B00060E08AE00E949D140E94FE1408954F920A
:1007C0005F926F927F928F929F92AF92BF92CF92E1
:1007D000DF92EF92FF920F931F93CF93DF93CDB7EA
:1007E000DEB72C970FB6F894DEBF0FBECDBFE982FF
:1007F000FA820B831C832D833E834F835887498065
:100800005A806B807C80C301B20128EE33E040E067
:1008100050E00E943D1902EB11E0205DF8012583B4
:100820000F2EF4E68F2E912CA12CB12CF02DA501CA
:1008300094010E943D19205DF8012683C301B20195
:10084000A50194010E943D190F2EFAE0CF2ED12C64
:10085000E12CF12CF02DA70196010E943D19205D9D
:10086000F8012087C301B201A70196010E943D193A
:10087000605DF8016187A80162E08AE00E949D1432
:100880004D805E806F807884C301B20120E137E241
:1008900040E050E00E941B190FEB11E0205DF801D1
:1008A000258328EE33E040E050E00E941B19205DD4
:1008B000F8012683C301B20128EE33E040E050E0A6
:1008C0000E941B19A50194010E941B19205DF801CB
:1008D0002783C301B201A50194010E941B19A7013E
:1008E00096010E941B19205DF8012087C301B20107
:1008F000A70196010E941B19605DF8016287A8019B
:1009000063E08AE00E949D142C960FB6F894DEBF37
:100910000FBECDBFDF91CF911F910F91FF90EF9050
:10092000DF90CF90BF90AF909F908F907F906F900F
:100930005F904F9008954F925F926F927F928F9247
:100940009F92AF92BF92CF92DF92EF92FF920F935E
:100950001F93CF93DF93CDB7DEB72C970FB6F894E4
:10096000DEBF0FBECDBFE982FA820B831C832D83CD
:100970003E834F8358870FEC11E087E62D2D280228
:10098000912D112495959595D7FC939520E3290FEA
:10099000F8012183990F292F220F220F920FD91AC4
:1009A0009D2D905D9283FC2DF802912D112495953B
:1009B0009595C7FC939520E3290FF8012483990F9F
:1009C000292F220F220F920FC91A9C2D905D95831B
:1009D000FB2DF802812D112485958595B7FC839513
:1009E00090E3980FF8019783880F982F990F990F2C
:1009F000890FB81A8B2D805D808789809A80AB80A3
:100A0000BC80C501B40128EE33E040E050E00E9414
:100A10003D19205DF80125870F2EF4E64F2E512C4D
:100A2000612C712CF02DA30192010E943D19205DD3
:100A3000F8012687C501B401A30192010E943D1966
:100A40000F2EFAE0CF2ED12CE12CF12CF02DA701A6
:100A500096010E943D19205DF801208BC501B4016B
:100A6000A70196010E943D19605DF801618B8D80A0
:100A70009E80AF80B884C501B40120E137E240E038
:100A800050E00E941B19205DF801268B28EE33E010
:100A900040E050E00E941B19205DF801278BC50142
:100AA000B40128EE33E040E050E00E941B19A3019E
:100AB00092010E941B19205DF801208FC501B4012D
:100AC000A30192010E941B19A70196010E941B1904
:100AD000205DF801218FC501B401A70196010E9494
:100AE0001B19605DF801638FC8010E942D082C96C8
:100AF0000FB6F894DEBF0FBECDBFDF91CF911F912F
:100B00000F91FF90EF90DF90CF90BF90AF909F90AC
:100B10008F907F906F905F904F900895CF92DF926B
:100B2000EF92FF920F931F93CF93DF93D52F162F42
:100B3000072FC22F9C01A8EEB3E00E9462192CEC93
:100B400030E040E050E00E941B1969017A01E0EFBB
:100B5000F1E087E60802912D11249595959507FD02
:100B6000939520E3290F2183990F292F220F220F1C
:100B7000920F091B005D02831802912D1124959597
:100B8000959517FD939520E3290F2483990F292F1D
:100B9000220F220F920F191B105D1583D802812D91
:100BA000112485958595D7FD839590E3980F9783BC
:100BB000880F982F990F990F890FD81BD05DD08778
:100BC0008601169507951695079516950795980130
:100BD000A5ECB0E20E946219AC01529542954F70AB
:100BE00045275F70452780E3840F858728EE33E033
:100BF000429FC001439F900D529F900D112496017A
:100C0000281B390B3695279536952795ABE7B4E128
:100C10000E94621996958795805D87879601369523
:100C20002795369527950E9462199C013695279540
:100C300044E6429FC001439F900D11249601281B5A
:100C4000390BADECBCEC0E94621996958795969590
:100C5000879596958795805D808B96010E94621995
:100C60009695879596958795969587959C01220FE1
:100C7000331F880F991F880F991F880F991F820FA4
:100C8000931F9601281B390BC901805D818BC18F91
:100C9000CF010E942D08DF91CF911F910F91FF90FE
:100CA000EF90DF90CF900895CF93DF93DC01FB01AD
:100CB0002C9197E62902812D11248595859527FD94
:100CC0008395880F382F330F330F830F281BEA01CA
:100CD000C20FD11D27FDDA95888180832C912902CE
:100CE000812D11248595859527FD8395EA01C80FEF
:100CF000D11D87FDDA958881818311962C911197FA
:100D00002902812D11248595859527FD8395880FCE
:100D1000382F330F330F830F281BEA01C20FD11D69
:100D200027FDDA958881828311962C9111972902EB
:100D3000812D11248595859527FD8395EA01C80F9E
:100D4000D11D87FDDA958881838312962C911297A5
:100D50002902812D11248595859527FD8395880F7E
:100D6000382F330F330F830F281BEA01C20FD11D19
:100D700027FDDA958881848312962C911297290297
:100D8000812D11248595859527FD8395EA01C80F4E
:100D9000D11D87FDDA958881858313962C91139751
:100DA0002902812D11248595859527FD8395880F2E
:100DB000382F330F330F830F281BEA01C20FD11DC9
:100DC00027FDDA958881868313968C918902912D6F
:100DD00011249595959587FD9395DA01A90FB11D7D
:100DE00097FDBA958C918783DF91CF91089590916B
:100DF000000491110BC098B121E030E002C0220F35
:100E0000331F6A95E2F7292B28B90BC098B121E06E
:100E100030E002C0220F331F6A95E2F720952923A4
:100E200028B990910004FA01E90FF11D208160E1D9
:100E3000269F900111242F602BB948B121E030E0AA
:100E4000B90102C0660F771F8A95E2F7CB01942F94
:100E5000982B98B900000000000098B18095892374
:100E600088B9809100048F5F80930004883011F46A
:100E700010920004089582E480937C0010927B001D
:100E800087E880937A000895ECE7F0E09081907F06
:100E9000892B8083EAE7F0E0808180648083809101
:100EA0007A0086FDFCCF80917800909179000895BA
:100EB0008FE08093690083E08DBB089580E284B960
:100EC00015B883E087B918B880EF8AB98CE08BB980
:100ED0000895E9EBF0E08081816080838CE080936D
:100EE000B800ECEBF0E0808184608083089584EAB0
:100EF0008093BC008091BC008823E4F78091B90006
:100F0000089584EA8093BC008091BC008823E4F7B4
:100F10008091B900089584E98093BC00089580937E
:100F2000BB0084E88093BC008091BC008823E4F778
:100F30008091B900887F883111F48091B9000895BB
:100F400020E4829FC001112484688093BC008091BA
:100F5000BC008823E4F78091BB000895813059F0EC
:100F600018F0823089F0089585B5887F85BD85B5F4
:100F7000682B65BD0895E1E8F0E08081887F80837B
:100F80008081682B60830895E1EBF0E08081887FA9
:100F900080838081682B6083089516BC8AE087BDBA
:100FA00084B5826084BDEEE6F0E08081826080835B
:100FB00065E080E00E94AE070895109285001092CF
:100FC000840089E09DE39093890080938800E1E8A4
:100FD000F0E0808188608083EFE6F0E080818260CD
:100FE000808365E081E00E94AE0708951092B20010
:100FF0008CE98093B300E0EBF0E080818260808335
:10100000E0E7F0E080818260808367E082E00E9418
:10101000AE070895813041F018F0823059F00895FC
:1010200085B5887F85BD0895E1E8F0E08081887FFF
:1010300080830895E1EBF0E08081887F80830895CC
:1010400087E690E09093C5008093C40088E9809380
:10105000C10086E08093C2000895AC0120E007C083
:101060009091C00095FFFCCF3093C6002F5FFA012E
:10107000E20FF11D30813111F3CF0895EF92FF920D
:101080000F931F93CF93DF93EC018B017A010E94A2
:10109000B601A701B801CE010E945406DF91CF919D
:1010A0001F910F91FF90EF900895EF92FF920F9391
:1010B0001F93CF93DF93EC018B017A010E942802EA
:1010C000A701B801CE010E945406DF91CF911F9174
:1010D0000F91FF90EF900895EF92FF920F931F935F
:1010E000CF93DF93EC018B017A010E940502A701E7
:1010F000B801CE010E945406DF91CF911F910F914C
:10110000FF90EF900895E5E4F4E0838362834183E8
:1011100020830895E7EBF4E0838362834183208397
:101120000895EFEAF4E08383628341832083089586
:10113000E3EBF4E0838362834183208308951F936C
:10114000CF93DF93FC011181412F50E0FA01F0971A
:10115000EE31F10508F016C2EC01E45CFF4F0C948F
:101160005C1968E272E00E94091B892B09F00AC22F
:101170008DE292E00E942D0881E004C264E472E0F6
:101180000E94091B892B61F420E040E060E080E0D0
:101190000E94830889E492E00E942D0882E0F2C157
:1011A00069E572E0CE010E94091B892B49F481E0B8
:1011B0000E940A088EE592E00E942D0883E0E2C1B9
:1011C0006EE672E0CE010E94091B892B51F483E781
:1011D00092E00E942D0865E081E00E94AE0784E065
:1011E000D1C1113389F58A81833371F583E892E0A7
:1011F0000E942D088B8190E0C097880F982F990F3F
:10120000990F890F9C81890F2D8130E0205331097E
:10121000220F622F660F660F260F9E81622F690FC5
:1012200060532F8130E020533109220F422F440FA9
:10123000440F240F9885422F490F405320E08053DC
:101240000E94830885E09EC1113309F09BC18A8109
:10125000843309F097C182E992E00E942D088B81C6
:1012600090E0C097880F982F990F990F890F9C8154
:10127000890F2D8130E020533109220F622F660F34
:10128000660F260F9E81622F690F60532F8130E019
:1012900020533109220F422F440F440F240F988509
:1012A000422F490F405320E080530E948A0842E0B9
:1012B00051E06DE174E087EB94E00E94540686E013
:1012C00061C161EA72E00E94091B892B61F486EA20
:1012D00092E00E942D0820E040E060E080E00E9463
:1012E000830887E04FC16AEB72E0CE010E94091BC0
:1012F000892B49F48FEB92E00E942D0882E00E9436
:101300000A0888E03FC163ED72E0CE010E94091B2C
:10131000892B51F488ED92E00E942D0867E082E06D
:101320000E94AE0789E02EC1133309F02BC18A81D8
:10133000833309F027C18CEE92E00E942D088B8147
:1013400090E0C097880F682F660F660F860F9C810C
:10135000682F690F60538D8190E0C097880F482FE8
:10136000440F440F840F9E81482F490F40538F81B3
:1013700090E0C097880F282F220F220F820F9885A8
:10138000282F290F205380E00E9498088AE0FAC095
:101390006FEF72E00E94091B892B61F484E093E0F7
:1013A0000E942D0820E040E060E080E00E9491086B
:1013B0008BE0E8C06AE173E0CE010E94091B892B33
:1013C00049F48FE193E00E942D0882E00E940A0810
:1013D0008CE0D8C065E373E0CE010E94091B892B25
:1013E00051F48AE393E00E942D0867E082E00E94B6
:1013F000AE078DE0C7C060E573E0CE010E94091B17
:10140000892B09F0BFC085E593E00E942D088091EB
:101410000B048530C0F4E82FF0E0AFEAB4E09C9113
:10142000EE0FFF1FEE0FFF1FE659FB4F9083119643
:101430009C911197918312969C9192838F5F8093D8
:101440000B048EE09FC0AFEAB4E08C91EAE6F4E0D2
:10145000808311968C911197818312968C9182834F
:1014600081E080930B048EE08DC063E673E00E9400
:10147000091B892B41F488E693E00E942D088FE038
:10148000809301017FC067E773E0CE010E94091BD2
:10149000892B41F48CE793E00E942D0880E1809332
:1014A000010170C06FE873E0CE010E94091B892B17
:1014B00051F410920B0484E993E00E942D0881E11D
:1014C000809301015FC069EA73E0CE010E94091BAD
:1014D000892B41F48EEA93E00E942D0882E18093EB
:1014E000010150C06DEB73E0CE010E94091B892BF6
:1014F00041F482EC93E00E942D0883E18093010186
:1015000041C067ED73E0CE010E94091B892BD1F524
:1015100010920B048CED93E00E942D0885E18093DE
:10152000010130C0BC018DE894E00E94CC012AC0CA
:1015300069EE73E00E94091B892B79F482E00E9416
:1015400044074091450450914604609147047091CE
:10155000480422E30E948E0515C064EF73E0CE01BB
:101560000E94091B892B71F483E00E94440740917B
:10157000450450914604609147047091480423E368
:101580000E948E05DF91CF911F9108950E945E0702
:101590000E94200878942FEF39E648E1215030402E
:1015A0004040E1F700C000008FE0809301010E94FD
:1015B00058070E943B070E94CD070E94DD070E944A
:1015C000F6070E9469078EE18093B80442E051E07B
:1015D0006DE174E087EB94E00E9454060E94990F3D
:1015E0000E94BC140E943E156DE874E080910204D4
:1015F0000E944502809100010E944A0380910C04E0
:101600008130F1F48EE794E00E949F088093AE044D
:1016100040E051E062E074E08DE894E00E94A902AD
:10162000609145047091460480914704909148046C
:101630000E949E03809100010E944A0310920C04B4
:1016400080910101833109F0CDC082E00E944407FE
:101650009C0190930A0480930904AC01440F551F28
:10166000880F991F880F991F880F991F840F951F46
:1016700060E074E0621B730B0E94F318709308041F
:101680006093070480E090E00E94631720E030E060
:1016900040E251E40E94BB160E94F9172CE23BEB9A
:1016A00044E859E30E94411822E63BEE4BE55BE338
:1016B0000E944F169B01AC0160E070E080E89FE360
:1016C0000E94BB166B017C016093030470930404B9
:1016D00080930504909306040E942D17C62F862F31
:1016E000972F64E670E00E940719D62F09E814E0EE
:1016F000F8016383F4E66F9FC0191124F801C283D7
:10170000F4E66F02B0011124072E000C880B990B30
:101710000E9465179B01AC01C701B6010E944E16DD
:101720004B015C016C2FCC0F770B880B990B0E943F
:1017300065172B013C019B01AC01C501B4010E945E
:101740004E162AE037ED43E25CE30E94BB160E948E
:101750002D17C62FF80161836D2FDD0F770B880BD6
:10176000990B0E94651720E030E048EC52E40E949B
:1017700041189B01AC01C701B6010E944E16A3019E
:1017800092010E944E166B017C016C2FCC0F770BDF
:10179000880B990B0E9465172AE037ED43E25CE362
:1017A0000E9441189B01AC01C701B6010E944E1670
:1017B00027E137EB41ED58E30E94BB160E942D173D
:1017C000F801608342E051E065E174E0C8010E94E5
:1017D0005406FFEF23EC39E0F15020403040E1F7B0
:1017E00000C0000080910101853189F580930101DD
:1017F0004FEF89E698E1415080409040E1F700C00A
:10180000000080910B0490E00196069714F010926E
:101810000B0480910B0490E09C012F5F3F4F880FD9
:10182000991F880F991F86599B4F220F322F330F14
:10183000330F230FFC01238342E051E06DE074E09D
:101840000E94540680910B048F5F80930B0480915B
:1018500001018F3009F0D2CE909148048091BA04F2
:101860009813CCCE909147048091B9049813C6CEBA
:10187000909146048091B8049813C0CE1AC022E11A
:1018800020930101FFEF29E638E1F150204030407C
:10189000E1F700C0000024E1209301014FEFE9E6E9
:1018A000F8E14150E040F040E1F700C0000001964F
:1018B00002C080E090E0833091050CF38FE08093CC
:1018C00001019CCE1F920F920FB60F9211242F93FD
:1018D0003F934F935F936F937F938F939F93AF93B8
:1018E000BF93EF93FF93E09101018E2F90E0FC01F5
:1018F0003F97E730F10598F5E65AFF4F0C945C19D5
:1019000045E254E061E080E00E94F7062CC045E328
:1019100054E061E080E00E94F70625C04DE254E00B
:1019200061E080E00E94F7061EC045E154E061E0FE
:1019300080E00E94F70617C04DE154E061E080E0CE
:101940000E94F70610C04DE054E061E080E00E9484
:10195000F70609C098B181E0892788B904C098B119
:1019600081E0892788B9FF91EF91BF91AF919F9155
:101970008F917F916F915F914F913F912F910F9038
:101980000FBE0F901F9018951F920F920FB60F92D7
:101990001124AF92BF92CF92DF92EF92FF920F93FA
:1019A0001F932F933F934F935F936F937F938F93E7
:1019B0009F93AF93BF93CF93DF93EF93FF9342E057
:1019C00051E065E374E085E494E00E943E08609194
:1019D00045047091460480914704909148040E9408
:1019E0009E0380910204813021F080918D0484FF58
:1019F0005CC00E940110CEE8D4E0688379838A83BA
:101A00009B830E94F3106C837D838E839F830E944F
:101A10009E13092E000CAA0BBB0B88879987AA87F7
:101A2000BB8780918D0484FF22C0A0904504B090B4
:101A30004604C0904704D0904804E0908E04F09093
:101A40008F040091900410919104209192043091A0
:101A50009304409194045091950460919604709180
:101A6000970480919804909199040E949B0480911E
:101A700002048130D1F4E0908E04F0908F04009144
:101A8000900410919104209192043091930440911C
:101A900094045091950460919604709197048091FC
:101AA0009804909199040E94DF03FF91EF91DF91D8
:101AB000CF91BF91AF919F918F917F916F915F91E6
:101AC0004F913F912F911F910F91FF90EF90DF90D9
:101AD000CF90BF90AF900F900FBE0F901F901895B2
:101AE0001F920F920FB60F9211242F933F934F9393
:101AF0005F936F937F938F939F93AF93BF93EF9376
:101B0000FF9380910101803119F0813151F011C0B2
:101B100042E051E06DE274E083EB94E00E946C08D7
:101B200008C042E051E065E274E08FEA94E00E9470
:101B30005508FF91EF91BF91AF919F918F917F9148
:101B40006F915F914F913F912F910F900FBE0F902A
:101B50001F9018951F920F920FB60F9211242F937A
:101B60003F938F939F93EF93FF938091010490E0B5
:101B70002091C600FC01E258FB4F208330917E0487
:101B80003C3341F40EC0E82FF0E0E258FB4F1082E6
:101B90008F5F01C080E08B30B0F38FEF8093010442
:101BA0000CC02E3351F4FC01E158FB4F10828FEF33
:101BB0008093010481E080930C04809101048F5F85
:101BC00080930104FF91EF919F918F913F912F910D
:101BD0000F900FBE0F901F9018951F920F920FB687
:101BE0000F9211242F933F934F935F936F937F93A3
:101BF0008F939F93AF93BF93EF93FF9395B180E241
:101C0000892785B980910101813199F585E593E0B6
:101C10000E942D0880910B048530B8F4E82FF0E085
:101C2000AFEAB4E09C91EE0FFF1FEE0FFF1FE659E5
:101C3000FB4F908311969C911197918312969C91E2
:101C400092838F5F80930B0414C085E593E00E941C
:101C50002D08AFEAB4E08C91EAE6F4E080831196B7
:101C60008C911197818312968C91828381E080936D
:101C70000B04FF91EF91BF91AF919F918F917F9155
:101C80006F915F914F913F912F910F900FBE0F90E9
:101C90001F901895CF93DF930E9477078CEE0E94D8
:101CA0008F0788E80E948F070E9481078DEE0E94AF
:101CB0008F0781E00E94A007C9E4D4E090E09983F7
:101CC000888381E00E94A00790E0982F88272881D0
:101CD0003981820F931F9983888381E00E94A00736
:101CE00090E09B838A8381E00E94A00790E0982F78
:101CF00088272A813B81820F931F9B838A8381E0FF
:101D00000E94A00790E09D838C8381E00E94A00741
:101D100090E0982F88272C813D81820F931F9D830F
:101D20008C8381E00E94A00790E09F838E8381E0F6
:101D30000E94A00790E0982F88272E813F81820F74
:101D4000931F9F838E8381E00E94A00790E0998774
:101D5000888781E00E94A00790E0982F8827288537
:101D60003985820F931F9987888781E00E94A00799
:101D700090E09B878A8781E00E94A00790E0982FDF
:101D800088272A853B85820F931F9B878A8781E05E
:101D90000E94A00790E09D878C8781E00E94A007A9
:101DA00090E0982F88272C853D85820F931F9D8773
:101DB0008C8781E00E94A00790E09F878E8781E05A
:101DC0000E94A00790E0982F88272E853F85820FDC
:101DD000931F9F878E8781E00E94A00790E0998BD8
:101DE000888B81E00E94A00790E0982F882728899F
:101DF0003989820F931F998B888B81E00E94A007FD
:101E000090E09B8B8A8B81E00E94A00790E0982F46
:101E100088272A893B89820F931F9B8B8A8B81E0BD
:101E20000E94A00790E09D8B8C8B81E00E94A00710
:101E300090E0982F88272C893D89820F931F9D8BD6
:101E40008C8B81E00E94A00790E09F8B8E8B80E0BE
:101E50000E94A00790E0982F88272E893F89820F43
:101E6000931F9F8B8E8B0E948B070E9477078CEEAF
:101E70000E948F0781EA0E948F070E9481078DEEE2
:101E80000E948F0780E00E94A007888F0E948B0726
:101E90000E9477078CEE0E948F0781EE0E948F07C9
:101EA0000E9481078DEE0E948F0781E00E94A007AB
:101EB00090E09A8F898F81E00E94A00790E0982F90
:101EC0008827298D3A8D820F931F9A8F898F81E001
:101ED0000E94A0078B8F81E00E94A00720E1829FD3
:101EE000C00111249D8F8C8F81E00E94A007982F44
:101EF0009F702C8D3D8D290F311D3D8F2C8F82952C
:101F00008F7090E09F8F8E8F81E00E94A0072E8DB2
:101F10003F8D90E1899F200D311D11243F8F2E8F21
:101F200080E00E94A00788A30E948B07DF91CF91D9
:101F300008950E9477078CEE0E948F0784EF0E941D
:101F40008F0787E50E948F0785EF0E948F0780E14A
:101F50000E948F070E948B070E944A0E0895CF931C
:101F6000DF930E9477078CEE0E948F078AEF0E9412
:101F70008F070E9481078DEE0E948F0781E00E94EB
:101F8000A007CAE9D4E0888381E00E94A007898382
:101F900080E00E94A0078A830E948B07888190E0DE
:101FA000A0E0B0E0AC01BD01032E3CE0440F551FA2
:101FB000661F771F3A95D1F7302D9981892F90E0D0
:101FC000A0E0B0E0880F991FAA1FBB1F880F991FC0
:101FD000AA1FBB1F880F991FAA1FBB1F880F991F1D
:101FE000AA1FBB1F842B952BA62BB72B2A812295CA
:101FF0002F70822B8B839C83AD83BE83DF91CF9127
:1020000008954F925F926F927F928F929F92AF92BC
:10201000BF92CF92DF92EF92FF920E94AF0FC090DB
:102020009D04D0909E04E0909F04F090A004B7011E
:10203000A601689412F8769567955795479516947A
:10204000D1F7E9E4F4E040805180612C712CD30198
:10205000C201880F991FAA1FBB1F9A01AB01281B41
:10206000390B4A0B5B0BA281B3810E947C194B0197
:102070005C01072E7BE0B694A794979487947A9599
:10208000D1F7702DD701C601689413F8B695A795BE
:10209000979587951694D1F7BC01CD016419750900
:1020A000860997099B01AC010E94E3189B01AC01D2
:1020B000012E1CE056954795379527951A95D1F72F
:1020C000102DA481B5810E947C19DC01CB01072E63
:1020D0007EE0B695A795979587957A95D1F7702D5F
:1020E000880D991DAA1DBB1D80933D0490933E044D
:1020F000A0933F04B09340046C017D01CC0CDD1C27
:10210000EE1CFF1CCC0CDD1CEE1CFF1C8C0D9D1D61
:10211000AE1DBF1D80589F4FAF4FBF4F692F7A2F05
:102120008B2F992787FD9A95FF90EF90DF90CF90A6
:10213000BF90AF909F908F907F906F905F904F90E7
:102140000895CF93DF930E9477078CEE0E948F074C
:1021500087EF0E948F070E9481078DEE0E948F07F4
:1021600081E00E94A007C1EAD4E0888381E00E9458
:10217000A007898380E00E94A0078A830E948B07C2
:10218000888190E0A0E0B0E0AC01BD01032E3CE00E
:10219000440F551F661F771F3A95D1F7302D99814F
:1021A000892F90E0A0E0B0E0880F991FAA1FBB1F05
:1021B000880F991FAA1FBB1F880F991FAA1FBB1F3B
:1021C000880F991FAA1FBB1F842B952BA62BB72BFB
:1021D0002A8122952F70822B8B839C83AD83BE83B3
:1021E000DF91CF9108952F923F924F925F926F921D
:1021F0007F928F929F92AF92BF92CF92DF92EF9297
:10220000FF920F931F93CF93DF93CDB7DEB7629703
:102210000FB6F894DEBF0FBECDBF0E94A110809113
:102220003D0490913E04A0913F04B09140046C01A4
:102230007D01FF0CCC08DC2C7601282F392F4A2F8A
:102240005B2F6C2D7C2D8C2D9C2D345F41405109D2
:10225000610971098109910929833A83442E552E18
:10226000662E772E282E392EA22EB32EC42ED52ED2
:10227000E62EF72E082F192F0E9484192B833C83FA
:102280004D835E836F8378878B879C87B0905A04D9
:10229000A09059041B2D110F110BC12ED12EE12E30
:1022A000F12E012F0E94841929873A874D875E8776
:1022B000862E972E8F87988BB0905804A090570445
:1022C0001B2D110F110BC12ED12EE12EF12E012F3E
:1022D00029813A81442D552D662D772D822D932D00
:1022E0000E94841901E10E94B41AA22EB32EC42EBA
:1022F000D52EE62EF72E082F192F29853A854D85E4
:102300005E85682D792D8F8598890E94EB1A822E23
:10231000932E49875A87B62FA72FF82FE92F309190
:10232000560420915504932F990F990B492F592F3B
:10233000692F792F892F03E20E94B41AA22EB32E9F
:10234000C42ED52EE62EF72E082F192F282D392D25
:1023500049855A856B2F7A2F8F2F9E2F0E94EB1A5B
:1023600029873A874D875E876F87788B898B9A8B11
:10237000B0905404A09053041B2D110F110BC12ECB
:10238000D12EE12EF12E012F2B813C814D815E81DA
:102390006F8178858B859C850E94841908E00E9456
:1023A000CD1A2B833C834D835E83862E972E8F839D
:1023B0009887B0905204A09051041B2D110F110B5F
:1023C000C12ED12EE12EF12E012F29813A81442DEB
:1023D000552D662D772D822D932D0E9484190CE0AA
:1023E0000E94B41AA22EB32EC42ED52EE62EF72E9E
:1023F000082F192F2B813C814D815E81682D792D0D
:102400008F8198850E94EB1A70588F4F9F4FE091F3
:102410004F04F09150041F01AE2EB32CC12CD12CCF
:10242000E12CF12C00E010E00E94841901E20E94EE
:10243000CD1A422E532E642E752E862E972E8A8309
:102440009983A0E00E94FD1A09F411C18091A404AF
:102450009091A504A091A604B091A70440E050E09B
:1024600060E170E08A019B01081B190B2A0B3B0BF2
:10247000D901C80158016901282F3B2D4C2D5D2D34
:1024800060E070E080E090E00FE10E94B41AA9845F
:10249000BA84CD84DE84EF84F88809891A890E9481
:1024A000F41A0F2EF5E3AF2EF02D0F2EFCE0BF2E09
:1024B000F02DC12CD12CE12CF12C00E010E00E9479
:1024C0008419A42CB52CC62CD72CE82CF92C0A8105
:1024D00019810E94DF1929833A834B835C836D83C2
:1024E0007E838F839887F0916004A0915F04EF2F23
:1024F000EE0FEE0B0DE00E94CD1A222E332E442E4D
:10250000552E662E772E882E992EA22EB32EC42EEF
:10251000D52EE62EF72E082F192F2A2F3F2F4E2FBC
:102520005E2F6E2F7E2F8E2F9E2F0E948419A22E3B
:10253000B32EC42ED52EE62EF72E082F192F222DBE
:10254000332D442D552D662D772D882D992D0E94E4
:10255000841909E10E94CD1A522E432E342E252EC5
:102560006B877C8789879A87B0905E04A0905D0412
:102570001B2D110F110BC12ED12EE12EF12E012F8B
:1025800029813A814B815C816D817E818F81988523
:102590000E94841903E10E94CD1A622E732E842EAC
:1025A000952EB62FA72FF82FE92F29813A814B813D
:1025B0005C816D817E818F819885A52CB42CC32C84
:1025C000D22CEB84FC8409851A850E94EB1AA22E7A
:1025D000B32EC42ED52EE62EF72E082F192F262D1A
:1025E000372D482D592D6B2F7A2F8F2F9E2F0E941C
:1025F000EB1A08E00E94CD1A822E932E642E752EBF
:10260000B62FA72FF82FE92F30915C0420915B049F
:10261000932F990F990B492F592F692F792F892FB4
:1026200004E00E94B41AA22EB32EC42ED52EE62E9C
:10263000F72E082F192F282D392D462D572D6B2FAA
:102640007A2F8F2F9E2F0E94EB1AA12C0F2EFAE0CB
:10265000BF2EF02DC12CD12CE12CF12C00E010E08C
:102660000E94DF19622F732F842F952F04C060E022
:1026700070E080E090E062960FB6F894DEBF0FBE87
:10268000CDBFDF91CF911F910F91FF90EF90DF9021
:10269000CF90BF90AF909F908F907F906F905F9002
:1026A0004F903F902F900895CF93DF930E9477072C
:1026B0008CEE0E948F078DEF0E948F070E9481078A
:1026C0008DEE0E948F0781E00E94A007C8EAD4E047
:1026D000888380E00E94A00789830E948B078881FD
:1026E00090E0A0E0B0E0AC01BD01032E3CE0440F5F
:1026F000551F661F771F3A95D1F7302D9981892F85
:1027000090E0A0E0B0E0880F991FAA1FBB1F880FC0
:10271000991FAA1FBB1F880F991FAA1FBB1F880FD5
:10272000991FAA1FBB1F842B952BA62BB72B8A831F
:102730009B83AC83BD83DF91CF9108954F925F92CD
:102740006F927F928F929F92AF92BF92CF92DF92C1
:10275000EF92FF920E94541380903D0490903E04AB
:10276000A0903F04B09040042CE2921A21E0A20A0B
:10277000B108C090AA04D090AB04E090AC04F090F3
:10278000AD040B2EBEE0CC0CDD1CEE1CFF1CBA957C
:10279000D1F7B02DE9E4F4E0848D958D092E000C7D
:1027A000AA0BBB0B072E74E1880F991FAA1FBB1F32
:1027B0007A95D1F7702DC81AD90AEA0AFB0AA68DB4
:1027C000B78DA50194010E947C19C61AD70AE80AA0
:1027D000F90A30E4D30EE11CF11C0B2EBFE0F69495
:1027E000E794D794C794BA95D1F7B02DA0A10A2E3B
:1027F000000CBB0BA50194010E947C192B013C012C
:10280000032E3AE075946794579447943A95D1F71C
:10281000302DA38DB0E00E947119DC01CB01072E91
:102820007BE0B595A795979587957A95D1F7702D0B
:10283000BC01CD0170588F4F9F4FA30192010E94A0
:10284000E318DC01CB01072E7AE0B595A7959795A3
:1028500087957A95D1F7702D9C01AD01405E5F4F51
:10286000A18DB28D0E947C19DC01CB01905EAF4F2F
:10287000BF4F9C01AD01012E1EE055954795379540
:1028800027951A95D1F7102DC701B6010E94E318BC
:102890006B017C01052E5FE095958795779567958F
:1028A0005A95D1F7502D9B01AC010E94E3189B0172
:1028B000AC01689416F85595479537952795169469
:1028C000D1F7A08DB0E00E947119DC01CB016894B2
:1028D00013F8B595A795979587951694D1F7A70105
:1028E0009601281B390B4A0B5B0BDA01C9011AF45C
:1028F00080E090E0DC0181309105A10539E1B3076A
:1029000024F080E090E0A0E0B9E1BC01CD01052E0B
:102910005CE095958795779567955A95D1F7502DF9
:10292000FF90EF90DF90CF90BF90AF909F908F90EF
:102930007F906F905F904F900895CF93DF93EA015F
:102940000E940615CE010E94DF15DF91CF910895F8
:102950000E940316811103C08CE30E942116089582
:10296000CF93C82F80E80E943616811103C08C2FA8
:102970000E943616CF910895CF92DF92EF92FF9288
:102980000F931F93CF93DF93ECEFF2E0E491EE2EE1
:10299000F12C0E94F7150E94A814811126C0CDEFDA
:1029A000D2E01DC0FE0114913196849122960E94BE
:1029B000B014882369F019C06E01FFEFCF1ADF0A47
:1029C000FE0184910E94B014102F81110EC0E60107
:1029D0000FEF010F1111F0CFF1E0EF1AF108E11440
:1029E000F10401F70E944A1680E0DF91CF911F9118
:1029F0000F91FF90EF90DF90CF9008950E94A81460
:102A0000811103C08FEA0E94B0140895CF93DF9321
:102A1000C82FD62F0E94A81481112DC081E20E94D8
:102A2000B014811128C08C2F0E94B014811123C0D2
:102A30008FE70E94B01481111EC08C2F90E09093FC
:102A400044048093430482E20E94B014811113C0B5
:102A50008D2F0E94B01481110EC087E00E94B01427
:102A6000811109C08D2F90E090934204809341041E
:102A70000E944A1680E0DF91CF910895CF93DF93B3
:102A800060E080E00E94061581111CC00E94A8141D
:102A9000811118C080E40E943616811113C0C0E075
:102AA000D0E006C080E00E94361681110BC021964E
:102AB00080910C0190910D01C817D90798F30E94DD
:102AC0004A1680E0DF91CF91089580914304909160
:102AD000440406968038910538F0209141043091E5
:102AE000420427303105D0F480389105C8F0609158
:102AF00041047091420467307105A0F410924404BF
:102B0000109243046F5F7F4F7093420460934104BF
:102B100080E00E940615882339F0089581E0089529
:102B200080E0089580E0089580E008951F93CF939A
:102B3000DF93182F0E946515C82F811132C00E94A3
:102B4000A814811130C080E40E94361681112DC076
:102B5000D0E014C0812F90E08097FC01EE0FFF1FA2
:102B6000EE0FFF1FE80FF91FED0FF11DE45EFE4FA2
:102B700084910E94361681111AC0DF5FD53050F360
:102B800080E00E943616811114C080914304909118
:102B90004404069690934404809343040E944A168A
:102BA00009C0C1E007C0C82F05C0C82F03C0C82F87
:102BB00001C0C82F8C2FDF91CF911F9108950F93E3
:102BC0001F93CF93DF938C01C0E0D0E005C0219626
:102BD0000E949615811106C0F801EC0FFD1F80813F
:102BE0008111F5CFDF91CF911F910F91089584E16D
:102BF0008093B800E9EBF0E0808190818270816081
:102C0000892B80830895E9EBF0E0808187758083CC
:102C100084EA8093BC008091BC008823E4F7809113
:102C2000B900887F883049F08091B900887F803171
:102C300031F08091B900887F089580E0089580E0A8
:102C40000895880F8093BB0084E88093BC00809136
:102C5000BC008823E4F78091B900887F883121F097
:102C60008091B900887F089580E008958093BB002B
:102C700084E88093BC008091BC008823E4F78091B5
:102C8000B900887F883221F08091B900887F08954B
:102C900080E0089584E98093BC0008955058BB27D4
:102CA000AA270E9466160C94B7170E94A91738F03D
:102CB0000E94B01720F039F49F3F19F426F40C94C9
:102CC000A6170EF4E095E7FB0C94A017E92F0E94DD
:102CD000C81758F3BA17620773078407950720F0DF
:102CE00079F4A6F50C94EA170EF4E0950B2EBA2FA2
:102CF000A02D0B01B90190010C01CA01A001112402
:102D0000FF27591B99F0593F50F4503E68F11A16AD
:102D1000F040A22F232F342F4427585FF3CF46953E
:102D200037952795A795F0405395C9F77EF41F1660
:102D3000BA0B620B730B840BBAF09150A1F0FF0F2A
:102D4000BB1F661F771F881FC2F70EC0BA0F621F16
:102D5000731F841F48F4879577956795B795F79506
:102D60009E3F08F0B0CF9395880F08F09927EE0F9B
:102D70009795879508950E94CF160C94B7170E94D7
:102D8000B01758F00E94A91740F029F45F3F29F0CE
:102D90000C94A01751110C94EB170C94A6170E94D9
:102DA000C81768F39923B1F3552391F3951B550B7D
:102DB000BB27AA2762177307840738F09F5F5F4F0E
:102DC000220F331F441FAA1FA9F335D00E2E3AF04D
:102DD000E0E832D091505040E695001CCAF72BD065
:102DE000FE2F29D0660F771F881FBB1F26173707B6
:102DF0004807AB07B0E809F0BB0B802DBF01FF27E8
:102E000093585F4F3AF09E3F510578F00C94A0170D
:102E10000C94EB175F3FE4F3983ED4F386957795D7
:102E20006795B795F7959F5FC9F7880F911D9695A0
:102E3000879597F90895E1E0660F771F881FBB1FFC
:102E4000621773078407BA0720F0621B730B840BA9
:102E5000BA0BEE1F88F7E09508950E943417689426
:102E6000B1110C94EB1708950E94D01788F09F576A
:102E700098F0B92F9927B751B0F0E1F0660F771F9E
:102E8000881F991F1AF0BA95C9F714C0B13091F094
:102E90000E94EA17B1E008950C94EA17672F782F83
:102EA0008827B85F39F0B93FCCF386957795679559
:102EB000B395D9F73EF490958095709561957F4FC5
:102EC0008F4F9F4F0895E89409C097FB3EF490956B
:102ED0008095709561957F4F8F4F9F4F9923A9F0F3
:102EE000F92F96E9BB279395F69587957795679582
:102EF000B795F111F8CFFAF4BB0F11F460FF1BC0C6
:102F00006F5F7F4F8F4F9F4F16C0882311F096E958
:102F100011C0772321F09EE8872F762F05C0662306
:102F200071F096E8862F70E060E02AF09A95660FBF
:102F3000771F881FDAF7880F9695879597F9089578
:102F400097F99F6780E870E060E008959FEF80EC5C
:102F5000089500240A9416161706180609060895FF
:102F600000240A9412161306140605060895092E65
:102F70000394000C11F4882352F0BB0F40F4BF2BD4
:102F800011F460FF04C06F5F7F4F8F4F9F4F089514
:102F900057FD9058440F551F59F05F3F71F047950A
:102FA000880F97FB991F61F09F3F79F087950895EF
:102FB000121613061406551FF2CF4695F1DF08C00E
:102FC000161617061806991FF1CF8695710561052B
:102FD00008940895E894BB2766277727CB0197F9D3
:102FE000089516F00C94AE180C94A61768940C94DF
:102FF000A0170E94D017A8F39923C1F3AEF3DF9373
:10300000CF931F930F93FF92C92FDD2788232AF0B8
:103010002197660F771F881FDAF720E030E040E83D
:103020005FEB9FE3883920F0803E38F021968F7760
:103030000E944F16E2ECF0E004C00E944F16EFEE43
:10304000F0E00E94BC188B01BE01EC01FB2E6F5713
:1030500071097595771F880B990B0E94651728E1F8
:1030600032E741E35FE30E945418AF2D9801AE01AF
:10307000FF900F911F91CF91DF910E9466160C94E3
:10308000B7170E9454180C94B7170E94A91738F06C
:103090000E94B01720F0952311F00C94A0170C9407
:1030A000A61711240C94EB170E94C81770F3959F74
:1030B000C1F3950F50E0551F629FF001729FBB272F
:1030C000F00DB11D639FAA27F00DB11DAA1F649FCB
:1030D0006627B00DA11D661F829F2227B00DA11D7E
:1030E000621F739FB00DA11D621F839FA00D611D04
:1030F000221F749F3327A00D611D231F849F600D25
:10310000211D822F762F6A2F11249F5750409AF04D
:10311000F1F088234AF0EE0FFF1FBB1F661F771FD9
:10312000881F91505040A9F79E3F510580F00C94A4
:10313000A0170C94EB175F3FE4F3983ED4F3869509
:1031400077956795B795F795E7959F5FC1F7FE2B44
:10315000880F911D9695879597F908959F3F31F0B7
:10316000915020F4879577956795B795880F911DB5
:103170009695879597F90895DF93CF931F930F93B3
:10318000FF92EF92DF927B018C01689406C0DA2EE9
:10319000EF010E945418FE01E894A5912591359104
:1031A00045915591A6F3EF010E946616FE01970125
:1031B000A801DA9469F7DF90EF90FF900F911F91CB
:1031C000CF91DF910895DB018F939F930E94711936
:1031D000BF91AF91A29F800D911DA39F900DB29FB3
:1031E000900D11240895AA1BBB1B51E107C0AA1F13
:1031F000BB1FA617B70710F0A61BB70B881F991F98
:103200005A95A9F780959095BC01CD01089597FB3B
:10321000072E16F4009407D077FD09D00E94F3180A
:1032200007FC05D03EF4909581959F4F08957095C9
:1032300061957F4F0895A1E21A2EAA1BBB1BFD01C9
:103240000DC0AA1FBB1FEE1FFF1FA217B307E40785
:10325000F50720F0A21BB30BE40BF50B661F771FDD
:10326000881F991F1A9469F76095709580959095BD
:103270009B01AC01BD01CF010895052E97FB1EF403
:1032800000940E94541957FD07D00E941B1907FC97
:1032900003D04EF40C9454195095409530952195D7
:1032A0003F4F4F4F5F4F0895909580957095619572
:1032B0007F4F8F4F9F4F0895EE0FFF1F0590F491A2
:1032C000E02D0994A29FB001B39FC001A39F700D90
:1032D000811D1124911DB29F700D811D1124911D1E
:1032E00008950E946219A59F900DB49F900DA49F10
:1032F000800D911D11240895B7FF0C9471190E943F
:103300007119821B930B0895DF93CF931F930F9333
:103310009A9DF02D219FF00D8B9DF00D8A9DE02D43
:10332000F10D039FF00D029FE00DF11D4E9DE00D8C
:10333000F11D5E9DF00D4F9DF00D7F936F93BF9239
:10334000AF925F934F93D5010E9462198B01AC013C
:10335000D7010E946219EB01E80FF91FD6010E9404
:10336000D4192F913F91D6010E946219C60FD71F21
:10337000E81FF91FAF91BF910E94D4192F913F917F
:103380000E946219C60FD71FE81FF91FD6010E94BD
:103390006219E60FF71F9801BE01CF0111240F91AA
:1033A0001F91CF91DF9108950E946219460F571F18
:1033B000C81FD91F08F431960895689401C0E89495
:1033C000F92FF12B12F00C94111AA0E0B0E0EBEE03
:1033D000F9E10C94831A092E059422F40E946D1AC7
:1033E000112392F4F0E80F26FFEFE094F09400959B
:1033F0001095B094C094D094A194BF0ACF0ADF0A6C
:10340000EF0AFF0A0F0B1F0B0E941C1A07FC0E94F9
:103410006D1ACDB7DEB7ECE00C949F1A689401C02A
:10342000E8948F929F92CF93DF930E941C1ADF91B2
:10343000CF919F908F90089588249924F401E401FE
:10344000B0E49F93AA279A158B049C04ED05FE0512
:10345000CF05D007A10798F4AD2FDC2FCF2FFE2F7B
:10346000E92D982C892E982F872F762F652F542F92
:10347000432F322F2227B85031F7BF9127C01B2E80
:10348000BF91BB27220F331F441F551F661F771F95
:10349000881F991F881C991CEE1FFF1FCC1FDD1F62
:1034A000AA1FBB1F8A149B04EC05FD05CE05DF0592
:1034B000A007B10748F08A189B08EC09FD09CE095E
:1034C000DF09A00BB10B21601A94E1F62EF49401F0
:1034D000AF01BE01CD01000C0895609570958095F7
:1034E000909530954095509521953F4F4F4F5F4FA8
:1034F0006F4F7F4F8F4F9F4F08952F923F924F9264
:103500005F926F927F928F929F92AF92BF92CF9273
:10351000DF92EF92FF920F931F93CF93DF93CDB77C
:10352000DEB7CA1BDB0B0FB6F894DEBF0FBECDBFF4
:1035300009942A88398848885F846E847D848C84C5
:103540009B84AA84B984C884DF80EE80FD800C81CE
:103550001B81AA81B981CE0FD11D0FB6F894DEBFB1
:103560000FBECDBFED0108950F93083090F0982F56
:10357000872F762F652F542F432F322F2227085065
:10358000F4CF220F331F441F551F661F771F881F5C
:10359000991F0A95B2F70F91089597FB10F81694AA
:1035A00000080F93083098F00850232F342F452F30
:1035B000562F672F782F892F902DF4CF059497954C
:1035C00087957795679557954795379527950A95E8
:1035D000AAF70F9108952A0D3B1D4C1D5D1D6E1D10
:1035E0007F1D801F911F08952A193B094C095D0911
:1035F0006E097F09800B910B08950024A7FD0094AC
:103600002A173005400550056005700580059005B6
:103610000895FB01DC018D91019080190110D9F30F
:08362000990B0895F894FFCF07
:1036280002140001020304050607080900043C35DA
:1036380055503E003C35444F574E3E003C35454EB4
:103648005445523E00526F6F6D204D6963726F632F
:103658006C696D6174650051756F7465206F6620C3
:103668004461790053797374656D20536574746986
:103678006E6773004755492056657273696F6E20EF
:10368800562D312E30004241434B00437265617420
:103698006520796F75722062657374006B6E6F7741
:1036A8006C65646765206C69627261727921004F8C
:1036B800757470757420646174613A20300020005C
:1036C8005379732054696D652030303A30303A3080
:1036D800300054656D702030302E3030204300505B
:1036E80072657320303030302E3020685061005BB6
:1036F80030303A30303A30305D7C543A30302E3009
:1037080030437C503A303030302E306850610A00F7
:103718005B30303A30303A30305D7C553A302E30BC
:10372800303020567C41444320307C0A003C5041D4
:1037380053533E0050415353574F52442041434343
:103748004550544544210A003C30303E00436C65E6
:103758006172696E672055534152542062756666DE
:1037680065720A003C31303E00436C656172696ED7
:103778006720636C6F636B0A003C31313E00537401
:103788006F7070696E6720636C6F636B0A003C3101
:10379800323E005374617274696E6720636C6F63A4
:1037A8006B0A0053657474696E6720636C6F636B92
:1037B8000A0053657474696E6720616C61726D0AE2
:1037C800003C33303E00436C656172696E6720636C
:1037D8006F756E74646F776E0A003C33313E005328
:1037E800746F7070696E6720636F756E74646F773D
:1037F8006E0A003C33323E005374617274696E671E
:1038080020636F756E74646F776E0A005365747405
:10381800696E6720636F756E74646F776E0A003C1B
:1038280032303E00436C656172696E67206368726E
:103838006F6E6F6D657465720A003C32313E0053DD
:10384800746F7070696E67206368726F6E6F6D65F4
:103858007465720A003C32323E00537461727469B6
:103868006E67206368726F6E6F6D657465720A00AB
:103878003C32333E00536176696E672061206C618B
:10388800700A003C34303E00444953504C41593A88
:10389800434C4F434B0A003C34313E00444953509B
:1038A8004C41593A434F554E54444F574E0A003CE9
:1038B80034323E00444953504C41593A4348524FE0
:1038C8004E4F4D455445520A003C34333E0044495E
:1038D80053504C41593A414C41524D0A003C343402
:1038E8003E00444953504C41593A54454D50455275
:1038F80041545552450A003C34353E004449535022
:103908004C41593A4C41500A003C4D5941435043AF
:1039180048323E003C4D594143504348333E000035
:00000001FF
