:100000000C943B000C94F2030C9458000C94580090
:100010000C9458000C9458000C9458000C947503E0
:100020000C9458000C9458000C9458000C944B03FA
:100030000C9458000C9458000C94E9020C9458004D
:100040000C9458000C9458000C94AF030C94580076
:100050000C9458000C9458000C9458000C945800C0
:100060000C9458000C9458000E0315030703230347
:100070001C0331032A0311241FBECFEFD8E0DEBFDB
:10008000CDBF12E0A0E0B1E0E6EBFAE002C00590DF
:100090000D92A83EB107D9F723E0A8EEB2E001C067
:1000A0001D92A936B207E1F70E9470020C9459051F
:1000B0000C940000FC0181818F5F81838C3324F0DC
:1000C000118282818F5F828382818C3324F012823D
:1000D00083818F5F8383838188310CF0138208953D
:1000E000FC0180818150808388232CF484E6808306
:1000F000818181508183818188232CF48BE38183EA
:10010000828181508283828188232CF48BE38283D5
:100110008381815083838381882324F41082118218
:10012000128213820895FC0180818F5F8083843660
:1001300024F0108281818F5F818381818C3324F050
:10014000118282818F5F828382818C3324F01282BC
:1001500083818F5F8383838188310CF013820895BC
:10016000CF93DF93DC01FB012C9197E62902812DCF
:1001700011248595859527FD8395880F382F330F9A
:10018000330F830F281BEA01C20FD11D27FDDA951B
:10019000888180832C912902812D11248595859554
:1001A00027FD8395EA01C80FD11D87FDDA95888167
:1001B000818311962C9111972902812D1124859507
:1001C000859527FD8395880F382F330F330F830FC5
:1001D000281BEA01C20FD11D27FDDA958881828391
:1001E00011962C9111972902812D112485958595C1
:1001F00027FD8395EA01C80FD11D87FDDA95888117
:10020000838312962C9112972902812D11248595B2
:10021000859527FD8395880F382F330F330F830F74
:10022000281BEA01C20FD11D27FDDA95888184833E
:1002300012962C9112972902812D1124859585956E
:1002400027FD8395EA01C80FD11D87FDDA958881C6
:10025000858313962C9113972902812D112485955E
:10026000859527FD8395880F382F330F330F830F24
:10027000281BEA01C20FD11D27FDDA9588818683EC
:1002800013968C918902912D11249595959587FD52
:100290009395DA01A90FB11D97FDBA958C918783CB
:1002A000DF91CF9108959091E80291110BC098B120
:1002B00021E030E002C0220F331F6A95E2F7292BBC
:1002C00028B90BC098B121E030E002C0220F331FE3
:1002D0006A95E2F72095292328B99091E802FA015E
:1002E000E90FF11D208160E1269F900111242F600C
:1002F0002BB948B121E030E0B90102C0660F771F89
:100300008A95E2F7CB01942F982B98B90000000052
:10031000000098B18095892388B98091E8028F5FA9
:100320008093E802883011F41092E802089582E484
:1003300080937C0010927B0087E880937A00089578
:100340008FE08093690083E08DBB089580E284B9DB
:1003500015B883E087B918B880EF8AB98CE08BB9FB
:100360000895E9EBF0E08081816080838CE08093E8
:10037000B800ECEBF0E0808184608083089584EA2B
:100380008093BC008091BC008823E4F78091B90081
:10039000089584EA8093BC008091BC008823E4F730
:1003A0008091B900089584E98093BC0008958093FA
:1003B000BB0084E88093BC008091BC008823E4F7F4
:1003C0008091B900887F883111F48091B900089537
:1003D00020E4829FC001112484688093BC00809136
:1003E000BC008823E4F78091BB000895813059F068
:1003F00018F0823089F0089585B5887F85BD85B570
:10040000682B65BD0895E1E8F0E08081887F8083F6
:100410008081682B60830895E1EBF0E08081887F24
:1004200080838081682B6083089516BC8AE087BD35
:1004300084B5826084BDEEE6F0E0808182608083D6
:1004400065E080E00E94F601089510928500109208
:10045000840089E09DE39093890080938800E1E81F
:10046000F0E0808188608083EFE6F0E08081826048
:10047000808365E081E00E94F60108951092B20049
:100480008CE98093B300E0EBF0E0808182608083B0
:10049000E0E7F0E080818260808367E082E00E9494
:1004A000F601089587E690E09093C5008093C4001C
:1004B00088E98093C10086E08093C2000895AC0172
:1004C00020E007C09091C00095FFFCCF3093C6009C
:1004D0002F5FFA01E20FF11D30813111F3CF089542
:1004E0000E94A6010E94520278942FEF89E698E1BB
:1004F000215080409040E1F700C000008FE08093E1
:1005000000010E94A0010E9497010E9415020E9412
:1005100025020E943E020E94B1018EE18093660393
:1005200041E051E06CEF72E085E693E00E94B0009C
:100530000E943D052FEF83EC99E0215080409040D0
:10054000E1F700C00000F4CFEF92FF920F931F93EA
:10055000CF93DF93EC018B017A010E945A00A7012F
:10056000B801CE010E94B000DF91CF911F910F9191
:10057000FF90EF900895EF92FF920F931F93CF9308
:10058000DF93EC018B017A010E949300A701B8016F
:10059000CE010E94B000DF91CF911F910F91FF908B
:1005A000EF900895EF92FF920F931F93CF93DF93F5
:1005B000EC018B017A010E947000A701B801CE0105
:1005C0000E94B000DF91CF911F910F91FF90EF90AB
:1005D00008951F920F920FB60F9211242F933F93FD
:1005E0004F935F936F937F938F939F93AF93BF933B
:1005F000EF93FF93E09100018E2F90E0FC013F9775
:10060000E730F10598F5EC5CFF4F0C94530544E09E
:1006100053E061E080E00E9453012CC044E153E0CC
:1006200061E080E00E94530125C04CE053E061E0AE
:1006300080E00E9453011EC044EF52E061E080E080
:100640000E94530117C04CEF52E061E080E00E942D
:10065000530110C04CEE52E061E080E00E94530173
:1006600009C098B181E0892788B904C098B181E0B8
:10067000892788B9FF91EF91BF91AF919F918F9199
:100680007F916F915F914F913F912F910F900FBE8E
:100690000F901F9018951F920F920FB60F92112472
:1006A0002F933F934F935F936F937F938F939F937A
:1006B000AF93BF93EF93FF9341E051E064E173E0A8
:1006C0008CE193E00E94A402FF91EF91BF91AF9162
:1006D0009F918F917F916F915F914F913F912F915A
:1006E0000F900FBE0F901F9018951F920F920FB68C
:1006F0000F9211242F933F934F935F936F937F93A8
:100700008F939F93AF93BF93EF93FF9380910001DB
:10071000803119F0813151F011C041E051E06CE0BD
:1007200073E081E693E00E94D20208C041E051E00C
:1007300064E073E08DE593E00E94BB02FF91EF91CE
:10074000BF91AF919F918F917F916F915F914F91E9
:100750003F912F910F900FBE0F901F9018951F92F1
:100760000F920FB60F9211242F933F938F939F9365
:10077000EF93FF938091E90290E02091C600FC0185
:10078000E45BFC4F208330914C033C3341F40EC0BA
:10079000E82FF0E0E45BFC4F10828F5F01C080E047
:1007A0008B30B0F38FEF8093E9020CC02E3351F4FD
:1007B000FC01E35BFC4F10828FEF8093E90281E044
:1007C0008093EB028091E9028F5F8093E902FF91B1
:1007D000EF919F918F913F912F910F900FBE0F90AE
:1007E0001F9018951F920F920FB60F9211242F93FE
:1007F0003F934F935F936F937F938F939F93AF93A9
:10080000BF93EF93FF9395B180E2892785B98091DB
:100810000001813199F583E592E00E945F028091A9
:10082000EA028530B8F4E82FF0E0ADE5B3E09C9142
:10083000EE0FFF1FEE0FFF1FE85CFC4F9083119639
:100840009C911197918312969C9192838F5F8093D4
:10085000EA0214C083E592E00E945F02ADE5B3E0D6
:100860008C91E8E3F3E0808311968C91119781835A
:1008700012968C91828381E08093EA02FF91EF913E
:10088000BF91AF919F918F917F916F915F914F91A8
:100890003F912F910F900FBE0F901F901895CF93FF
:1008A000DF930E94BF018CEE0E94D70188E80E946E
:1008B000D7010E94C9018DEE0E94D70181E00E94FC
:1008C000E801C0E2D3E090E09983888381E00E9450
:1008D000E80190E0982F882728813981820F931FA3
:1008E0009983888381E00E94E80190E09B838A835A
:1008F00081E00E94E80190E0982F88272A813B81BF
:10090000820F931F9B838A8381E00E94E80190E01D
:100910009D838C8381E00E94E80190E0982F8827D6
:100920002C813D81820F931F9D838C8381E00E94E7
:10093000E80190E09F838E8381E00E94E80190E0CF
:10094000982F88272E813F81820F931F9F838E834C
:1009500081E00E94E80190E09987888781E00E9409
:10096000E80190E0982F882728853985820F931F0A
:100970009987888781E00E94E80190E09B878A87B9
:1009800081E00E94E80190E0982F88272A853B8526
:10099000820F931F9B878A8781E00E94E80190E085
:1009A0009D878C8781E00E94E80190E0982F88273E
:1009B0002C853D85820F931F9D878C8781E00E9447
:1009C000E80190E09F878E8781E00E94E80190E037
:1009D000982F88272E853F85820F931F9F878E87AC
:1009E00081E00E94E80190E0998B888B81E00E9471
:1009F000E80190E0982F882728893989820F931F72
:100A0000998B888B81E00E94E80190E09B8B8A8B18
:100A100081E00E94E80190E0982F88272A893B898D
:100A2000820F931F9B8B8A8B81E00E94E80190E0EC
:100A30009D8B8C8B81E00E94E80190E0982F8827A5
:100A40002C893D89820F931F9D8B8C8B81E00E94A6
:100A5000E80190E09F8B8E8B80E00E94E80190E09F
:100A6000982F88272E893F89820F931F9F8B8E8B0B
:100A70000E94D301DF91CF9108950E94BF018CEEB7
:100A80000E94D70184EF0E94D70187E50E94D70119
:100A900085EF0E94D70180E10E94D7010E94D30117
:100AA0000E944F040895EE0FFF1F0590F491E02D72
:060AB0000994F894FFCF49
:100AB60014000102030405060708093C504153537C
:100AC6003E0050415353574F5244204143434550F3
:100AD600544544210A003C30303E00436C65617247
:100AE600696E672055534152542062756666657279
:100AF6000A003C31303E00436C656172696E6720C6
:100B0600636C6F636B0A003C31313E0053746F7047
:100B160070696E6720636C6F636B0A003C31323E0E
:100B2600005374617274696E6720636C6F636B0A3D
:100B36000053657474696E6720636C6F636B0A009B
:100B460053657474696E6720616C61726D0A003C4E
:100B560033303E00436C656172696E6720636F7562
:100B66006E74646F776E0A003C33313E0053746FC7
:100B76007070696E6720636F756E74646F776E0A46
:100B8600003C33323E005374617274696E672063B1
:100B96006F756E74646F776E0A0053657474696E50
:100BA6006720636F756E74646F776E0A003C32302F
:100BB6003E00436C656172696E67206368726F6E92
:100BC6006F6D657465720A003C32313E0053746F76
:100BD6007070696E67206368726F6E6F6D6574659D
:100BE600720A003C32323E005374617274696E6759
:100BF600206368726F6E6F6D657465720A003C32B1
:100C0600333E00536176696E672061206C61700A1D
:100C1600003C34303E00444953504C41593A434C11
:100C26004F434B0A003C34313E00444953504C413B
:100C3600593A434F554E54444F574E0A003C3432AE
:100C46003E00444953504C41593A4348524F4E4F47
:100C56004D455445520A003C34333E0044495350F6
:100C66004C41593A414C41524D0A003C34343E0005
:100C7600444953504C41593A54454D5045524154BC
:100C86005552450A003C34353E00444953504C41C8
:080C9600593A4C41500A0000DC
:00000001FF
