S00F000050524F4A4543542E73726563FE
S11300000C9468000C94B2070C9485000C94850041
S11300100C9485000C9485000C9485000C94350791
S11300200C9485000C9485000C9485000C940B07AB
S11300300C9485000C9485000C94A9060C948500FE
S11300400C9485000C9485000C946F070C94850027
S11300500C9485000C9485000C9485000C94850008
S11300600C9485000C948500CE06D506C706E306DD
S1130070DC06F106EA0608000000BE922449123E9E
S1130080ABAAAA2ABECDCCCC4C3E00000080BEABAD
S1130090AAAAAA3E00000000BF000000803F0000A2
S11300A0000000084178D3BB4387D1133D190E3CAF
S11300B0C3BD4282AD2B3E68EC8276BED98FE1A9E6
S11300C03E4C80EFFFBE01C4FF7F3F0000000000F4
S11300D011241FBECFEFD8E0DEBFCDBF12E0A0E0F9
S11300E0B1E0EAEBF5E102C005900D92AE3FB10735
S11300F0D9F723E0AEEFB2E001C01D92A43AB207F3
S1130100E1F70E9433050C94DB0A0C940000FC0117
S113011081818F5F81838C3324F0118282818F5F90
S1130120828382818C3324F0128283818F5F838364
S1130130838188310CF0138208950F931F93CF931A
S1130140DF93FC01208123FD29C08B01EC016BE0CE
S113015071E0C8010E94D20A892B31F48881816040
S11301608860888386E11DC061E171E0C8010E9456
S1130170D20A892B31F4888182608860888387E180
S113018010C069E171E0C8010E94D20A892B41F4D0
S1130190888184608860888388E103C080E001C02E
S11301A080E0DF91CF911F910F910895FC01808130
S11301B08150808388232CF484E68083818181505C
S11301C08183818188232CF48BE381838281815014
S11301D08283828188232CF48BE382838381815000
S11301E083838381882324F41082118212821382F0
S11301F00895FC0180818F5F8083843624F010820F
S113020081818F5F818381818C3324F0118282818B
S11302108F5F828382818C3324F0128283818F5F8B
S11302208383838188310CF013820895CF93DF9305
S1130230DC01FB012C9197E62902812D112485957F
S1130240859527FD8395880F382F330F330F830F40
S1130250281BEA01C20FD11D27FDDA95888180830E
S11302602C912902812D11248595859527FD83954F
S1130270EA01C80FD11D87FDDA9588818183119623
S11302802C9111972902812D11248595859527FD9F
S11302908395880F382F330F330F830F281BEA0100
S11302A0C20FD11D27FDDA958881828311962C9186
S11302B011972902812D11248595859527FD839514
S11302C0EA01C80FD11D87FDDA95888183831296D0
S11302D02C9112972902812D11248595859527FD4E
S11302E08395880F382F330F330F830F281BEA01B0
S11302F0C20FD11D27FDDA958881848312962C9133
S113030012972902812D11248595859527FD8395C2
S1130310EA01C80FD11D87FDDA958881858313967C
S11303202C9113972902812D11248595859527FDFC
S11303308395880F382F330F330F830F281BEA015F
S1130340C20FD11D27FDDA958881868313968C917F
S11303508902912D11249595959587FD9395DA0140
S1130360A90FB11D97FDBA958C918783DF91CF9129
S113037008959091FE0291110BC098B121E030E0F4
S113038002C0220F331F6A95E2F7292B28B90BC04C
S113039098B121E030E002C0220F331F6A95E2F7E2
S11303A02095292328B99091FE02FA01E90FF11D45
S11303B0208160E1269F900111242F602BB948B160
S11303C021E030E0B90102C0660F771F8A95E2F799
S11303D0CB01942F982B98B900000000000098B12D
S11303E08095892388B98091FE028F5F8093FE02F5
S11303F0883011F41092FE02089582E480937C0008
S113040010927B0087E880937A000895ECE7F0E08F
S11304109081907F892B8083EAE7F0E0808180647B
S1130420808380917A0086FDFCCF80917800909142
S1130430790008958FE08093690083E08DBB08956F
S113044080E284B915B883E087B918B880EF8AB917
S11304508CE08BB90895E9EBF0E0808181608083C2
S11304608CE08093B800ECEBF0E0808184608083C2
S11304700895813059F018F0823089F0089585B5D7
S1130480887F85BD85B5682B65BD0895E1E8F0E0FA
S11304908081887F80838081682B60830895E1EB6D
S11304A0F0E08081887F80838081682B6083089559
S11304B016BC8AE087BD84B5826084BDEEE6F0E0B8
S11304C080818260808365E080E00E943902089523
S11304D0109285001092840089E09DE39093890036
S11304E080938800E1E8F0E0808188608083EFE613
S11304F0F0E080818260808365E081E00E943902BF
S113050008951092B2008CE98093B300E0EBF0E020
S1130510808182608083E0E7F0E080818260808374
S113052067E082E00E9439020895813041F018F0BA
S1130530823059F0089585B5887F85BD0895E1E836
S1130540F0E08081887F80830895E1EBF0E0808192
S1130550887F8083089587E690E09093C500809318
S1130560C40088E98093C10086E08093C2000895A6
S1130570AC0120E007C09091C00095FFFCCF309300
S1130580C6002F5FFA01E20FF11D30813111F3CF64
S11305900895EF92FF920F931F93CF93DF93EC0193
S11305A08B017A010E948700A701B801CE010E9445
S11305B01601DF91CF911F910F91FF90EF90089555
S11305C0EF92FF920F931F93CF93DF93EC018B0174
S11305D07A010E94F900A701B801CE010E94160118
S11305E0DF91CF911F910F91FF90EF900895EF92BB
S11305F0FF920F931F93CF93DF93EC018B017A014A
S11306000E94D600A701B801CE010E941601DF9115
S1130610CF911F910F91FF90EF900895EAE3F3E0DB
S113062083836283418320830895E0EAF3E0838334
S11306306283418320830895E8E9F3E0838362833E
S1130640418320830895ECE9F3E08383628341834B
S1130650208308950F931F93CF938C01FC01C181D4
S1130660C23309F42CC128F4C03361F0C133B9F0AA
S1130670F6C1C43309F490C108F4B8C0C53309F411
S1130680E8C1EDC16DE371E00E94D20A892B09F043
S1130690E6C182E491E00E94B80281E0E0C169E52C
S11306A071E00E94D20A892B61F420E040E060E00E
S11306B080E00E940E038EE591E00E94B80282E081
S11306C0CEC16EE671E0C8010E94D20A892B49F4BA
S11306D081E00E94950283E791E00E94B80283E0E2
S11306E0BEC163E871E0C8010E94D20A892B51F4AB
S11306F088E891E00E94B80265E081E00E94390236
S113070084E0ADC1C13399F5F8018281833379F571
S113071088E991E00E94B802F801838190E0C097D3
S1130720880F982F990F990F890F9481890F25812C
S113073030E020533109220F622F660F660F260F17
S11307409681622F690F6053278130E0205331096D
S1130750220F422F440F440F240F9085422F490F3C
S1130760405320E080530E940E0385E078C1C133DA
S113077009F075C1F8018281843309F070C187EAF8
S113078091E00E94B802F801838190E0C097880F3D
S1130790982F990F990F890F9481890F258130E043
S11307A020533109220F622F660F660F260F9681A0
S11307B0622F690F6053278130E020533109220FE3
S11307C0422F440F440F240F9085422F490F40536A
S11307D020E080530E94150341E051E06AE173E098
S11307E080EA93E00E94160186E039C166EB71E06D
S11307F00E94D20A892B61F48BEB91E00E94B8022B
S113080020E040E060E080E00E940E0387E027C122
S11308106FEC71E0C8010E94D20A892B49F484ED7F
S113082091E00E94B80282E00E94950288E017C11C
S113083068EE71E0C8010E94D20A892B51F48DEE52
S113084091E00E94B80267E082E00E94390289E0E8
S113085006C1C33309F003C1F8018281833309F06F
S1130860FEC081E092E00E94B802F801838190E02A
S1130870C097880F682F660F660F860F9481682FC4
S1130880690F6053858190E0C097880F482F440F0B
S1130890440F840F9681482F490F4053878190E07D
S11308A0C097880F282F220F220F820F9085282FA0
S11308B0290F205380E00E9423038AE0D0C064E122
S11308C072E00E94D20A892B61F489E192E00E94CD
S11308D0B80220E040E060E080E00E941C038BE06E
S11308E0BEC06FE272E0C8010E94D20A892B49F4AB
S11308F084E392E00E94B80282E00E9495028CE0B8
S1130900AEC06AE472E0C8010E94D20A892B51F495
S11309108FE492E00E94B80267E082E00E9439020C
S11309208DE09DC065E672E0C8010E94D20A892B61
S113093009F095C08AE692E00E94B802809108030B
S11309408530C0F4E82FF0E0A8E9B3E09C91EE0F05
S1130950FF1FEE0FFF1FE15AFC4F908311969C91ED
S11309601197918312969C9192838F5F80930803D1
S11309708EE075C0A8E9B3E08C91EFE5F3E08083E5
S113098011968C911197818312968C91828381E0C8
S1130990809308038EE063C068E772E00E94D20A85
S11309A0892B41F48DE792E00E94B8028FE0809396
S11309B0000155C06CE872E0C8010E94D20A892B7C
S11309C041F481E992E00E94B80280E18093000141
S11309D046C064EA72E0C8010E94D20A892B51F42D
S11309E01092080389EA92E00E94B80281E18093A0
S11309F0000135C06EEB72E0C8010E94D20A892B57
S1130A0041F483EC92E00E94B80282E180930001F9
S1130A1026C062ED72E0C8010E94D20A892B41F41B
S1130A2087ED92E00E94B80283E18093000117C031
S1130A306CEE72E0C8010E94D20A892B81F41092F4
S1130A40080381EF92E00E94B80285E180930001DF
S1130A5006C0BC0182E893E00E949D0000C0CF91D3
S1130A601F910F9108950E9420020E94AB02789476
S1130A702FEF39E648E1215030404040E1F700C013
S1130A8000008FE0809300010E941A020E94FD0181
S1130A900E9458020E9468020E9481020E942B0256
S1130AA08EE18093A10341E051E06AE173E080EAC2
S1130AB093E00E94160180910903813041F483E799
S1130AC093E00E942A038093830310920903809188
S1130AD00001833109F0CDC082E00E9406029C012E
S1130AE09093070380930603AC01440F551F880FAE
S1130AF0991F880F991F880F991F840F951F60E015
S1130B0074E0621B730B0E94A40A70930503609344
S1130B10040380E090E00E94240920E030E040E2F9
S1130B2051E40E947C080E94BA092CE23BEB44E8A1
S1130B3059E30E94020A22E63BEE4BE55BE30E9486
S1130B4010089B01AC0160E070E080E89FE30E9424
S1130B507C086B017C016093000370930103809314
S1130B600203909303030E94EE08C62F862F972F4B
S1130B7064E670E00E94B80AD62F0EE713E0F8018D
S1130B806383F4E66F9FC0191124F801C283F4E66D
S1130B906F02B0011124072E000C880B990B0E94E0
S1130BA026099B01AC01C701B6010E940F084B0145
S1130BB05C016C2FCC0F770B880B990B0E942609D4
S1130BC02B013C019B01AC01C501B4010E940F083B
S1130BD02AE037ED43E25CE30E947C080E94EE08C1
S1130BE0C62FF80161836D2FDD0F770B880B990BEE
S1130BF00E94260920E030E048EC52E40E94020AF8
S1130C009B01AC01C701B6010E940F08A301920128
S1130C100E940F086B017C016C2FCC0F770B880BA3
S1130C20990B0E9426092AE037ED43E25CE30E9417
S1130C30020A9B01AC01C701B6010E940F0827E11B
S1130C4037EB41ED58E30E947C080E94EE08F8015E
S1130C50608341E051E062E173E0C8010E94160143
S1130C60FFEF23EC39E0F15020403040E1F700C0C1
S1130C70000080910001853189F5809300014FEFD8
S1130C8089E698E1415080409040E1F700C00000BF
S1130C908091080390E00196069714F010920803DF
S1130CA08091080390E09C012F5F3F4F880F991FAC
S1130CB0880F991F815A9C4F220F322F330F330F05
S1130CC0230FFC01238341E051E06AE073E00E94BA
S1130CD01601809108038F5F8093080380910001BF
S1130CE08F3009F0E8CE90913D038091A3039813CF
S1130CF0E2CE90913C038091A2039813DCCE9091B4
S1130D003B038091A1039813D6CE1AC022E120930D
S1130D100001FFEF29E638E1F15020403040E1F7CF
S1130D2000C0000024E1209300014FEFE9E6F8E160
S1130D304150E040F040E1F700C00000019602C0DD
S1130D4080E090E0833091050CF38FE08093000104
S1130D50B2CE1F920F920FB60F9211242F933F938E
S1130D604F935F936F937F938F939F93AF93BF93AF
S1130D70EF93FF93E09100018E2F90E0FC013F97E9
S1130D80E730F10598F5EC5CFF4F0C94CC0A42E295
S1130D9053E061E080E00E94B9012CC042E353E0DB
S1130DA061E080E00E94B90125C04AE253E061E0BD
S1130DB080E00E94B9011EC042E153E061E080E09E
S1130DC00E94B90117C04AE153E061E080E00E944B
S1130DD0B90110C04AE053E061E080E00E94B9012B
S1130DE009C098B181E0892788B904C098B181E02D
S1130DF0892788B9FF91EF91BF91AF919F918F910E
S1130E007F916F915F914F913F912F910F900FBE02
S1130E100F901F9018951F920F920FB60F921124E6
S1130E202F933F934F935F936F937F938F939F93EE
S1130E30AF93BF93EF93FF9341E051E062E373E01C
S1130E408AE393E00E94C902FF91EF91BF91AF91B1
S1130E509F918F917F916F915F914F913F912F91CE
S1130E600F900FBE0F901F9018951F920F920FB600
S1130E700F9211242F933F934F935F936F937F931C
S1130E808F939F93AF93BF93EF93FF938091000150
S1130E90803119F0813151F011C041E051E06AE232
S1130EA073E08CE993E00E94F70208C041E051E04E
S1130EB062E273E088E993E00E94E002FF91EF911F
S1130EC0BF91AF919F918F917F916F915F914F915E
S1130ED03F912F910F900FBE0F901F9018951F9266
S1130EE00F920FB60F9211242F933F938F939F93DA
S1130EF0EF93FF938091FF0290E02091C600FC01E4
S1130F00ED58FC4F2083309173033C3341F40EC001
S1130F10E82FF0E0ED58FC4F10828F5F01C080E0B5
S1130F208B30B0F38FEF8093FF020CC02E3351F45B
S1130F30FC01EC58FC4F10828FEF8093FF0281E09C
S1130F40809309038091FF028F5F8093FF02FF91DA
S1130F50EF919F918F913F912F910F900FBE0F9022
S1130F601F9018951F920F920FB60F9211242F9372
S1130F703F934F935F936F937F938F939F93AF931D
S1130F80BF93EF93FF9395B180E2892785B9809150
S1130F900001813199F58AE692E00E94B8028091BD
S1130FA008038530B8F4E82FF0E0A8E9B3E09C9199
S1130FB0EE0FFF1FEE0FFF1FE15AFC4F90831196B7
S1130FC09C911197918312969C9192838F5F809349
S1130FD0080314C08AE692E00E94B802A8E9B3E0CC
S1130FE08C91EFE5F3E0808311968C9111978183C6
S1130FF012968C91828381E080930803FF91EF9194
S1131000BF91AF919F918F917F916F915F914F911C
S11310103F912F910F900FBE0F901F90189550582D
S1131020BB27AA270E9427080C9478090E946A0902
S113103038F00E94710920F039F49F3F19F426F426
S11310400C9467090EF4E095E7FB0C946109E92F11
S11310500E94890958F3BA17620773078407950732
S113106020F079F4A6F50C94AB090EF4E0950B2E60
S1131070BA2FA02D0B01B90190010C01CA01A001E6
S11310801124FF27591B99F0593F50F4503E68F141
S11310901A16F040A22F232F342F4427585FF3CF82
S11310A0469537952795A795F0405395C9F77EF453
S11310B01F16BA0B620B730B840BBAF09150A1F09C
S11310C0FF0FBB1F661F771F881FC2F70EC0BA0F22
S11310D0621F731F841F48F4879577956795B795AA
S11310E0F7959E3F08F0B0CF9395880F08F09927A5
S11310F0EE0F9795879508950E9490080C947809AF
S11311000E94710958F00E946A0940F029F45F3F77
S113111029F00C94610951110C94AC090C946709E1
S11311200E94890968F39923B1F3552391F3951B20
S1131130550BBB27AA2762177307840738F09F5FF4
S11311405F4F220F331F441FAA1FA9F335D00E2E61
S11311503AF0E0E832D091505040E695001CCAF7CE
S11311602BD0FE2F29D0660F771F881FBB1F261791
S113117037074807AB07B0E809F0BB0B802DBF0168
S1131180FF2793585F4F3AF09E3F510578F00C9437
S113119061090C94AC095F3FE4F3983ED4F386955F
S11311A077956795B795F7959F5FC9F7880F911D58
S11311B09695879597F90895E1E0660F771F881F44
S11311C0BB1F621773078407BA0720F0621B730BF7
S11311D0840BBA0BEE1F88F7E09508950E94F5087A
S11311E06894B1110C94AC0908950E94910988F097
S11311F09F5798F0B92F9927B751B0F0E1F0660FD7
S1131200771F881F991F1AF0BA95C9F714C0B13017
S113121091F00E94AB09B1E008950C94AB09672FDB
S1131220782F8827B85F39F0B93FCCF38695779546
S11312306795B395D9F73EF490958095709561952F
S11312407F4F8F4F9F4F0895E89409C097FB3EF45A
S113125090958095709561957F4F8F4F9F4F9923FF
S1131260A9F0F92F96E9BB279395F695879577957D
S11312706795B795F111F8CFFAF4BB0F11F460FF3D
S11312801BC06F5F7F4F8F4F9F4F16C0882311F095
S113129096E911C0772321F09EE8872F762F05C0A9
S11312A0662371F096E8862F70E060E02AF09A9544
S11312B0660F771F881FDAF7880F9695879597F939
S11312C0089597F99F6780E870E060E008959FEFC4
S11312D080EC089500240A941616170618060906C9
S11312E0089500240A941216130614060506089598
S11312F0092E0394000C11F4882352F0BB0F40F420
S1131300BF2B11F460FF04C06F5F7F4F8F4F9F4F5F
S1131310089557FD9058440F551F59F05F3F71F0E1
S11313204795880F97FB991F61F09F3F79F0879548
S11313300895121613061406551FF2CF4695F1DFD1
S113134008C0161617061806991FF1CF8695710561
S1131350610508940895E894BB2766277727CB0195
S113136097F9089516F00C946F0A0C946709689421
S11313700C9461090E949109A8F39923C1F3AEF377
S1131380DF93CF931F930F93FF92C92FDD278823F9
S11313902AF02197660F771F881FDAF720E030E0E4
S11313A040E85FEB9FE3883920F0803E38F02196D7
S11313B08F770E941008E6E7F0E004C00E9410084E
S11313C0E3EAF0E00E947D0A8B01BE01EC01FB2EF2
S11313D06F5771097595771F880B990B0E94260921
S11313E028E132E741E35FE30E94150AAF2D98013B
S11313F0AE01FF900F911F91CF91DF910E942708BA
S11314000C9478090E94150A0C9478090E946A09C0
S113141038F00E94710920F0952311F00C946109B1
S11314200C94670911240C94AC090E94890970F387
S1131430959FC1F3950F50E0551F629FF001729F75
S1131440BB27F00DB11D639FAA27F00DB11DAA1F84
S1131450649F6627B00DA11D661F829F2227B00DD1
S1131460A11D621F739FB00DA11D621F839FA00D5C
S1131470611D221F749F3327A00D611D231F849FAC
S1131480600D211D822F762F6A2F11249F57504003
S11314909AF0F1F088234AF0EE0FFF1FBB1F661F7E
S11314A0771F881F91505040A9F79E3F510580F047
S11314B00C9461090C94AC095F3FE4F3983ED4F3B7
S11314C0869577956795B795F795E7959F5FC1F7EB
S11314D0FE2B880F911D9695879597F908959F3F48
S11314E031F0915020F4879577956795B795880FDB
S11314F0911D9695879597F90895DF93CF931F9340
S11315000F93FF92EF92DF927B018C01689406C0E7
S1131510DA2EEF010E94150AFE01E894A5912591A7
S1131520359145915591A6F3EF010E942708FE01DC
S11315309701A801DA9469F7DF90EF90FF900F917B
S11315401F91CF91DF910895AA1BBB1B51E107C0E6
S1131550AA1FBB1FA617B70710F0A61BB70B881F3F
S1131560991F5A95A9F780959095BC01CD010895CE
S113157097FB072E16F4009407D077FD09D00E943C
S1131580A40A07FC05D03EF4909581959F4F0895D9
S1131590709561957F4F0895EE0FFF1F0590F491AC
S11315A0E02D0994FB01DC018D910190801901105B
S10D15B0D9F3990B0895F894FFCFC6
S11315BA14000102030405060708093C3555503E88
S11315CA003C35444F574E3E003C35454E54455237
S11315DA3E003C504153533E0050415353574F52DF
S11315EA44204143434550544544210A003C303089
S11315FA3E00436C656172696E67205553415254CB
S113160A206275666665720A003C31303E00436C9E
S113161A656172696E6720636C6F636B0A003C31A3
S113162A313E0053746F7070696E6720636C6F6328
S113163A6B0A003C31323E005374617274696E67FE
S113164A20636C6F636B0A0053657474696E672058
S113165A636C6F636B0A0053657474696E67206107
S113166A6C61726D0A003C33303E00436C656172F2
S113167A696E6720636F756E74646F776E0A003CD7
S113168A33313E0053746F7070696E6720636F75EF
S113169A6E74646F776E0A003C33323E0053746191
S11316AA7274696E6720636F756E74646F776E0AFD
S11316BA0053657474696E6720636F756E74646F22
S11316CA776E0A003C32303E00436C656172696E83
S11316DA67206368726F6E6F6D657465720A003C89
S11316EA32313E0053746F7070696E67206368729A
S11316FA6F6E6F6D657465720A003C32323E005338
S113170A74617274696E67206368726F6E6F6D6557
S113171A7465720A003C32333E00536176696E671F
S113172A2061206C61700A003C34303E0044495305
S113173A504C41593A434C4F434B0A003C34313ED6
S113174A00444953504C41593A434F554E54444F1F
S113175A574E0A003C34323E00444953504C4159D6
S113176A3A4348524F4E4F4D455445520A003C3471
S113177A333E00444953504C41593A414C41524D2D
S113178A0A003C34343E00444953504C41593A54BB
S113179A454D50455241545552450A003C34353E54
S11117AA00444953504C41593A4C41500A00F6
S9030000FC
